:020000040000fa
:080000000002040000000000f2
:020000040000fa
:04000800b605000039
:020000040000fa
:04000c00f8050000f3
:020000040000fa
:04001000580600008e
:020000040000fa
:04001400d60500000d
:020000040000fa
:0400180018060000c6
:020000040000fa
:04001c0038060000a2
:020000040000fa
:04002000780600005e
:020000040000fa
:04002400a40600002e
:020000040000fa
:04002800a40600002a
:020000040000fa
:04002c00a406000026
:020000040000fa
:04003000a406000022
:020000040000fa
:040034008005000043
:020000040000fa
:04003800a40600001a
:020000040000fa
:04003c00a406000016
:020000040000fa
:04004000a406000012
:020000040000fa
:04004400a40600000e
:020000040000fa
:04004800a40600000a
:020000040000fa
:04004c00a406000006
:020000040000fa
:04005000a406000002
:020000040000fa
:04005400a4060000fe
:020000040000fa
:04005800a4060000fa
:020000040000fa
:04005c00a4060000f6
:020000040000fa
:04006000a4060000f2
:020000040000fa
:04006400a4060000ee
:020000040000fa
:04006800a4060000ea
:020000040000fa
:04006c002e0300005f
:020000040000fa
:04007000a4060000e2
:020000040000fa
:04007400a4060000de
:020000040000fa
:04007800a4060000da
:020000040000fa
:04007c00a4060000d6
:020000040000fa
:04008000a4060000d2
:020000040000fa
:04008400a4060000ce
:020000040000fa
:04008800a4060000ca
:020000040000fa
:04008c00a4060000c6
:020000040000fa
:04009000a4060000c2
:020000040000fa
:04009400a4060000be
:020000040000fa
:04009800a4060000ba
:020000040000fa
:04009c00a4060000b6
:020000040000fa
:0400a000a4060000b2
:020000040000fa
:0400a400a4060000ae
:020000040000fa
:0400a800a4060000aa
:020000040000fa
:0400ac00a4060000a6
:020000040000fa
:0400b000a4060000a2
:020000040000fa
:0400b400a40600009e
:020000040000fa
:0400b800a40600009a
:020000040000fa
:0400bc00a406000096
:020000040000fa
:0400c000a406000092
:020000040000fa
:0400c400a40600008e
:020000040000fa
:0400c800a40600008a
:020000040000fa
:0400cc00a406000086
:020000040000fa
:0400d000a406000082
:020000040000fa
:0400d400a40600007e
:020000040000fa
:0400d800a40600007a
:020000040000fa
:0400dc00a406000076
:020000040000fa
:0400e000a406000072
:020000040000fa
:0400e400a40600006e
:020000040000fa
:0400e800a40600006a
:020000040000fa
:0400ec00a406000066
:020000040000fa
:0400f000a406000062
:020000040000fa
:0400f400a40600005e
:020000040000fa
:0400f800a40600005a
:020000040000fa
:0400fc00a406000056
:020000040000fa
:04010000a406000051
:020000040000fa
:04010400a40600004d
:020000040000fa
:04010800a406000049
:020000040000fa
:04010c00a406000045
:020000040000fa
:04011000a406000041
:020000040000fa
:04011400a40600003d
:020000040000fa
:04011800a406000039
:020000040000fa
:04011c00a406000035
:020000040000fa
:04012000a406000031
:020000040000fa
:04012400a40600002d
:020000040000fa
:04012800a406000029
:020000040000fa
:04012c00a406000025
:020000040000fa
:04013000a406000021
:020000040000fa
:04013400a40600001d
:020000040000fa
:04013800a406000019
:020000040000fa
:04013c00a406000015
:020000040000fa
:04014000a406000011
:020000040000fa
:04014400a40600000d
:020000040000fa
:04014800a406000009
:020000040000fa
:04014c00a406000005
:020000040000fa
:04015000a406000001
:020000040000fa
:04015400a4060000fd
:020000040000fa
:04015800a4060000f9
:020000040000fa
:04015c00a4060000f5
:020000040000fa
:04016000a4060000f1
:020000040000fa
:04016400a4060000ed
:020000040000fa
:04016800a4060000e9
:020000040000fa
:04016c00a4060000e5
:020000040000fa
:04017000a4060000e1
:020000040000fa
:04017400a4060000dd
:020000040000fa
:04017800a4060000d9
:020000040000fa
:04017c00a4060000d5
:020000040000fa
:04018000a4060000d1
:020000040000fa
:04018400a4060000cd
:020000040000fa
:04018800a4060000c9
:020000040000fa
:04018c00a4060000c5
:020000040000fa
:04019000a4060000c1
:020000040000fa
:04019400a4060000bd
:020000040000fa
:04019800a4060000b9
:020000040000fa
:04019c00a4060000b5
:020000040000fa
:0401a000a4060000b1
:020000040000fa
:0401a400a4060000ad
:020000040000fa
:0401a800a4060000a9
:020000040000fa
:0401ac00a4060000a5
:020000040000fa
:0401b000a4060000a1
:020000040000fa
:0401b400a40600009d
:020000040000fa
:0401b800a406000099
:020000040000fa
:0401bc00a406000095
:020000040000fa
:0401c000a406000091
:020000040000fa
:0401c400a40600008d
:020000040000fa
:0401c800a406000089
:020000040000fa
:0401cc00a406000085
:020000040000fa
:0401d000a406000081
:020000040000fa
:0401d400a40600007d
:020000040000fa
:0401d800a406000079
:020000040000fa
:0401dc00a406000075
:020000040000fa
:0401e000a406000071
:020000040000fa
:0401e400a40600006d
:020000040000fa
:0401e800a406000069
:020000040000fa
:0401ec00a406000065
:020000040000fa
:0401f000a406000061
:020000040000fa
:0401f400a40600005d
:020000040000fa
:0401f800a406000059
:020000040000fa
:0401fc00a406000055
:020000040000fa
:04020000a406000050
:020000040000fa
:04020400a40600004c
:020000040000fa
:04020800a406000048
:020000040000fa
:04020c00a406000044
:020000040000fa
:04021000a406000040
:020000040000fa
:04021400a40600003c
:020000040000fa
:04021800a406000038
:020000040000fa
:04021c00a406000034
:020000040000fa
:04022000a406000030
:020000040000fa
:04022400a40600002c
:020000040000fa
:04022800a406000028
:020000040000fa
:04022c00a406000024
:020000040000fa
:04023000a406000020
:020000040000fa
:04023400a40600001c
:020000040000fa
:04023800a406000018
:020000040000fa
:04023c00a406000014
:020000040000fa
:04024000a406000010
:020000040000fa
:04024400a40600000c
:020000040000fa
:04024800a406000008
:020000040000fa
:04024c00a406000004
:020000040000fa
:04025000a406000000
:020000040000fa
:04025400a4060000fc
:020000040000fa
:04025800a4060000f8
:020000040000fa
:04025c00a4060000f4
:020000040000fa
:04026000a4060000f0
:020000040000fa
:04026400a4060000ec
:020000040000fa
:04026800a4060000e8
:020000040000fa
:04026c00a4060000e4
:020000040000fa
:04027000a4060000e0
:020000040000fa
:04027400a4060000dc
:020000040000fa
:04027800a4060000d8
:020000040000fa
:04027c00a4060000d4
:020000040000fa
:04028000a4060000d0
:020000040000fa
:100400000fae21000eff27000e0188000000000043
:10041000000020000000e000020032000001200087
:100420002002880014000700490207000000e000d5
:1004300003003a0060652700010020000200370039
:100440000000200001002000810f70000100320038
:100450000f000700000020000000e0000200320052
:100460000000020000000000e43d02000000000067
:100470000040da000000fe00a01f20000000e000a5
:1004800002003200002020009001880000000600d9
:10049000a1028800800478000000eb001f003700f4
:1004a000e284440054a0b4009905ba00e2844400f8
:1004b00054a0b4009906ba00e284440054a0b400e9
:1004c0000006eb00476fde00fd07b200ae018800ba
:1004d000636ce10003003a000ad801000000eb0061
:1004e0000e003700606ce10008003a00004deb00a0
:1004f0000a05e800020039003420ec000af0a000f0
:100500008b05e900f9ff3e00040037006168e10057
:10051000010032000086eb000b00070019c7ba008b
:100520000e04e0001905ba0003003a000a00e000da
:10053000dbff3a0000000600fe07b200ae028800b2
:100540008a047800f5ff37000cd0a300e20f4d00bd
:100550001c00390089027800354dba000a05e80010
:10056000020039003420ec000af0a0008b05e900fd
:100570000f003200254dba000a05e80002003900dc
:100580003420ec000af0a0008b05e90008003200de
:100590000c00e0000600320015cdba000a05e800a4
:1005a000020039003420ec000af0a0008b05e900bd
:1005b0008984e80054a0b4000b00e000e2ff3a0098
:1005c000000006009902ba00055d78008b05e9007d
:1005d000f7ff3200c82ade00055d78008b05e900d0
:1005e000f3ff32000c00e000f1ff320019ddba0029
:1005f000eeff3700b27104000000000044790400ef
:10060000000000001a7204000000000034720400b0
:1006100000000000667204000000000094720400f4
:1006200000000000c472040000000000d07204004a
:1006300000000000f672040000000000da720400fe
:10064000000000004e790400000000005a7304000e
:100650000000000032090400000000003600f8002d
:10066000809fbe00829fbe00849fbe00869fbe000a
:100670000000fa000228a9004110800000082000b4
:10068000008060000000e0000800320008e2a900dd
:100690004c30ef0090828000200090008000eb0042
:1006a000010878005230ef000e01370060828000b0
:1006b0008000eb00b200200003002000820f5000f9
:1006c000838f5800fd003e00000601000b0037003c
:1006d0003a003700760037009d003700f4003700fd
:1006e000c9003700da003700f1003700dc003700be
:1006f000f200370035003700510037004004210078
:1007000020009000620060000000e000f4003a0069
:1007100040042100100090009082880040042100d5
:1007200010009000104078004ef0b7004004210007
:10073000100090001000900080828800400421008a
:1007400010009000e60040004004210011009800d5
:10075000400421009000900060ab2100808f500089
:1007600003003a004004210001ab21001100980071
:100770004004210020019000e1ff2f008100610072
:1007800021009800400421009000900040042100c6
:1007900010007800808f500004003a0040042100cf
:1007a000a00090000110a000210098000602a800ff
:1007b0002000200060828800ca0037000622a800be
:1007c0002000200060828800c600370041108000b1
:1007d00000002800008060000000e00008003200f7
:1007e00040042100604090008040e8004004210067
:1007f00061409800400020001e360700b900370015
:10080000a08280008000d100f00f200000806000f6
:1008100010108800a0828000610060000040780015
:100820000004e00003003200b00020006082880075
:10083000ac0037003000200060828800a90037003b
:100840004110800000002800008060000000e000ef
:100850000800320040042100604090008040e80021
:10086000400421006140980040002000013607004c
:100870009c0037000622a800a08280004800de000d
:10088000e6006000000f200001007000a0828800d8
:10089000a08280000000a000a082880010c0b300e9
:1008a00056f0b70020002000608288008d003700dd
:1008b00056d0bf00e14f50000a0032008082800015
:1008c00010007800a08288008082800020009000c4
:1008d000c082880080828000204090005af0b700db
:1008e000010037005670ef00a1828000f00f200059
:1008f000808f500009003600a08280004800de0092
:10090000e6006000000f2000010070001010880059
:10091000a00020006082880072003700a082800062
:1009200010108800a0828000610060000040780004
:100930000004e000030032005000200060828800c4
:1009400068003700300020006082880065003700b2
:100950004110800000002800008060000000e000de
:100960000900320040042100604090008040e8000f
:10097000400421006140980009e2a90050002000d5
:10098000bc350700570037005ad0bf008080fb00fd
:100990008100e900cf08de00814078000040e900d6
:1009a0005af0b7000104e00010003200808280009d
:1009b00066004000808288004ed0bf000040e90001
:1009c0004ef0b7004ed0bf000004e00003003a0034
:1009d00020002000a7350700420037000622a800ab
:1009e00020002000608288003e003700c082800026
:1009f000904078008180fb00111088000000e80022
:100a0000c0828800370037004110800000002800b5
:100a1000008060000000e000090032004004210076
:100a2000604090008040e800400421006140980050
:100a3000400020008f35070009e2a9002900370097
:100a40000662a80080002000608288002500370030
:100a500080002000608288000662a8002100370024
:100a6000c082800001108000814078000148780039
:100a70000000e800c08288005ad0bf000040e900b2
:100a80005af0b7005ad0bf000004e0000400320062
:100a900006a2a900600020006082880002003700e2
:100aa00006a2a800623507000682a8000d003700e4
:100ab000200020006f3507000a00370040042100a5
:100ac000604090008040e8004004210061409800b0
:100ad00060002000673507000000000001003700bb
:100ae000000000000080fa004f03be004f02be006d
:100af0004f01be004f00be003600f9000040060066
:100b00003600f800809fbe00829fbe00849fbe001a
:100b1000869fbe000000fa00908380000000e00085
:100b2000020032009083800000000100d0ad21005f
:100b3000104078008040e800d0ad210001487800e6
:100b4000c0ad210011c0b300014878000068a900c1
:100b50000080fa004f03be004f02be004f01be00ee
:100b60004f00be003600f900004006003600f800d5
:100b7000809fbe00829fbe00849fbe00869fbe00f5
:100b80000000fa00c028a9000000eb00d7390700d8
:100b90000080fa004f03be004f02be004f01be00ae
:100ba0004f00be003600f900004006003600f80095
:100bb000809fbe00829fbe00849fbe00869fbe00b5
:100bc0000000fa00ce390700c048a900100020003c
:100bd000c63907000080fa004f03be004f02be0076
:100be0004f01be004f00be003600f9000040060075
:100bf0003600f800809fbe00829fbe00849fbe002a
:100c0000869fbe000000fa00c068a90020002000f6
:100c1000b63907000080fa004f03be004f02be0045
:100c20004f01be004f00be003600f9000040060034
:100c30003600f800809fbe00829fbe00849fbe00e9
:100c4000869fbe000000fa00c088a9003000200086
:100c5000a63907000080fa004f03be004f02be0015
:100c60004f01be004f00be003600f90000400600f4
:100c70003600f800809fbe00829fbe00849fbe00a9
:100c8000869fbe000000fa00c0a8a9004000200016
:100c9000963907000080fa004f03be004f02be00e5
:100ca0004f01be004f00be003600f90000400600b4
:100cb0003600f800809fbe00829fbe00849fbe0069
:100cc000869fbe000000fa00c608a9007000200040
:100cd000863907000080fa004f03be004f02be00b5
:100ce0004f01be004f00be003600f9000040060074
:100cf0003600f800809fbe00829fbe00849fbe0029
:100d0000869fbe000000fa002146800000022000fd
:100d1000008060000000e00003003200c4a8a900c9
:100d200090002000713907002046800070006000ac
:100d30000000e00003003200c488a900a0002000e9
:100d40006a390700ffff37000040da000000fe00ac
:100d500000000500140020009c003700f4ff2f0065
:100d60009a0037000001be003f0007000470a70092
:100d700003f0a1006509b100160032000d00350036
:100d80006828e10006003500f0ff2f00f1ff270082
:100d90000300e00013003b000100280000000500f4
:100da00000004000818048008502e900fcff3a0015
:100db00008003700f88f420002003c008000eb0082
:100dc000000005008100d1000080d3008502e8000a
:100dd000fcff3a000300e00002003b00600010004e
:100de000e0801800000006000001be001e000700a1
:100df0000470a70003f0a10003f8a30013003a0059
:100e00006509b10010003200090035006928e100d1
:100e1000020035000100280000000500000040002d
:100e2000818048008502e900fcff3a0000000600ce
:100e3000f88f4200050035008100d1000080d3000a
:100e40008502e800fcff3a00000006008000eb008d
:100e5000000005004f89de0082017800760037002f
:100e60006011b80084003700c70ade00f107b20045
:100e7000f50fb20008003200e1cf4200020032005c
:100e80000170a00024000500810f700001003200f5
:100e90000408050044000500810f700002003a00bc
:100ea000140005008502e9000000400081c04800f0
:100eb000fcff3b000170a00024000500889fbe00dd
:100ec0008a9fbe008c1f7800c0000700c700330057
:100ed00003866c006450e100240032006420e100cd
:100ee000270032006150e100220032006120e10061
:100ef000210032008b854200eb07b1000134b800bd
:100f0000003ab8000804420089844a00013ab80057
:100f10000030b8008880400009014a000400330016
:100f20000000400081804800020149008b05e90073
:100f3000c909dd00830170000100320013002000a8
:100f4000c814de004814dd004709de001200b200bc
:100f5000c808de00088470007600070001f0a100d8
:100f60000cf0a70001f0a000a90037006120e1000b
:100f7000ab0032000801be000200be00f7ff3700e0
:100f80006150e100fcff3a00a50037006022b80084
:100f9000060220000000d0008180d2000482d2002e
:100fa0008582d2000000a0000202520083825a0013
:100fb000030031000202420083824a000000a100c7
:100fc0000603e900f3ff3a0000000600889fbe0018
:100fd0008a9fbe00841f78007c0007004f007800c5
:100fe00011003300f0ff2f00838f6c0006003b00e0
:100ff000040565000a00a7000800370009f0a600f4
:101000001000200008003700820f5400838f5c001e
:10101000030039001000200001003e000000200005
:1010200009f0a7000000ea004f05be004f04be0013
:101030000000e00000000600881f7800030478002c
:101040000300e00007003d0060001000e080180091
:1010500060011900e081190002003b0001f02d0041
:10106000030037000400070008f0a70001f0a0000b
:101070004f04780000000600889fbe008a9fbe00d3
:1010800000827000040271000482710026003200a8
:101090000004be000200be006011b8006b09200011
:1010a000950220000182cf000a0039000541b100fd
:1010b0000082cf00070039000541b1000982cf004e
:1010c000040039000541b1000882cf000100390059
:1010d0000541b10005425200120032000a003b00f7
:1010e00082817100610164008100d1000080d30021
:1010f0008984d3000884d3008b05e8000442e8000b
:10110000f7ff3a00070037000804440089844c00c8
:1011100000004800818048008b05e9000442e90096
:10112000f9ff3a00030007004f05be004f04be0060
:101130000000060081002000618055000b003d008a
:101140000b00200061fe2f000100e1001d003400b3
:1011500082817100610164008904d1000884d30098
:101160000000e800faff3a0071002000610064000e
:1011700003007000020060000900320061044400b6
:10118000e0844c000988a500050032008b05e800ca
:101190006808e10002003a008904d1000884d30005
:1011a000f20f20000258e10005003d00c75ddd00a0
:1011b000f907b20089807500080078000000060079
:1011c0000bf827008b007800000005000004be002b
:1011d00025ff07000003be000405be000200be009c
:1011e00021ff0700844f7500000006000200be00ca
:1011f0006450e100050036006420e1000200360082
:101200000968a30001003a000800be000160a000c8
:101210004f0678004f05be004f04be0000000600d8
:10122000f0ff2f00f1ff2700f9ff37008001780061
:1012300002003700b15978000201e9000200e00025
:10124000fcff3a0000000600800178000200370031
:10125000815978000201e9000200e000fcff3a0039
:1012600000000600881f780002047800080178005a
:10127000eeff0700080040004f0478000000060061
:101280000000fa00881f780000047800ea81570007
:101290003fb99700880078002093200007000700de
:1012a0000000e0000200350000044400004ceb00a8
:1012b0004f0478000080fa00000006006200fa0087
:1012c000889fbe008a1f780000057800810478009e
:1012d000020478008300780080f92f000f0040009e
:1012e0004a0407009a979f00a9979f000000eb000f
:1012f000b09f9f001885fb008a04fb000a05ea00e6
:101300004f55de0050022000808f54000d00320047
:10131000e10f55000b003a000a01780088007800c0
:101320002f9097009f91970003000100a0979f00c6
:101330000000e0008e0032003f9897000000e800b7
:10134000b09f9f000a04440050022000808f540088
:10135000040032000900e000e6ff3a003f989700e1
:10136000840037000000eb00909f9f00809f9f004b
:10137000f0979f00e0979f00d0979f00c0979f0035
:101380000700370021a921000100500000004000a3
:1013900061a82100808040005f98970011007000d4
:1013a000d09f9f00880478000904780038457800b1
:1013b0008a00fb0020a92100220307000000e000b2
:1013c000f0ff3a00a1c2b300814f55000e003a0071
:1013d000cf8897000180e900c08f9f00100078003f
:1013e000c09f9f000000e00005003d000000ea00f3
:1013f000c09f9f005f9897000020a000d09f9f0093
:101400000904e8000f003700c09f9f000000eb00b8
:1014100005003700f2ff2700820f50000200320063
:10142000ea00b900008040000904780088047800d0
:10143000b900fb000103b100e98f5000f5ff360051
:10144000c09f9f00e0c2b300984f1000020032001e
:101450000080eb0019003700a0c2b300d84f100085
:1014600007003a00cf8897000180e900c08f9f00f5
:1014700010007800a09f9f000804e80010003700cb
:101480000000eb00a09f9f00880078000500370057
:10149000f3ff2700830f500002003200ea00b9007a
:1014a0000000410001047800880078003101fb0051
:1014b0000203b100e90f5100f5ff3600a09f9f0025
:1014c000984478008900fb00e0a72100dd020700b6
:1014d0000000e000020032000804e80001003700cc
:1014e0008044eb00c97f9f0080c6b30080cf5400ca
:1014f00004003a0098cf14000a003a0066405000f9
:1015000006003700c0c6b30080cf540005003a0083
:1015100098cf140003003a0065404000c07f9f0050
:101520000804e8001801fb00e3fb2f008f81410055
:1015300081f92f008f804000a0f92f000f0040009c
:10154000100007000000e00009003a00e1fb2f0056
:101550008f804000a0f92f000f004000ef0207002d
:101560000000e000020035000804e80061ff3700d9
:101570000080eb004f0578004f04be000080fa00a9
:1015800000000600889fbe008a1f780000047800d3
:10159000824478000305780070c4b30080cf540003
:1015a0000a003c0000c0e90080cf54000f003d005d
:1015b00050c2b30080cf54003b0032007c4040005a
:1015c00080cf54003b003a000800370010c6b3003b
:1015d00080cf54000500320036003500b0c9b3009a
:1015e00000c04400e24f500032003e0028619000ed
:1015f000c0c4b300804f510008003a0011017800c8
:101600006800510080087800900090002001900050
:10161000b00190001000780006003700110178003a
:10162000640051008008780090009000100078005d
:101630007c040700009cbe000294be00b80090002d
:10164000780090000100e00003003d0080004500ac
:10165000d2c2b3000a003700881090000118a3001e
:101660000300320080004500b2c2b300040037001e
:101670000108a300050032008000450002c2b3004b
:10168000824878000000e80070049800780090001c
:10169000000545006a0498008900fb0008007800f6
:1016a000100007000b00370078009000000545008f
:1016b0000500370078009000000545000904e000af
:1016c00001003a0059c2b300094d78000000e8005b
:1016d000700498000000eb004f0578004f04be0036
:1016e000000006002f04b000889fbe008a9fbe0045
:1016f0008c9fbe008e1f78000007780081f79f0046
:101700001e0478009e0490002e059000be059000f7
:101710005e0890000000e00002003d006000200034
:10172000500f98008e00780020fb2f000f00400023
:1017300050020700e20f50000a003a00300020007b
:10174000100f9800b1c9b3000ff09700814040001e
:10175000209e2100e1cf50000d003e00e09d2100c1
:101760000b0037000000e0000f00340030002000c4
:10177000100f9800b1c9b3000ff1970081404100ec
:10178000a09e2100e1cf500001003e00609e21009c
:10179000ee009000b0487800b06878001040780003
:1017a00090409800f70037000000e00005003a0084
:1017b00022fb2f000f014100001978008001eb008f
:1017c000eb0037006022b8006033b8000800be00ac
:1017d0000a01be005b0307000000e00001003d00bd
:1017e0000bf0a200705927009f9897000088b9005d
:1017f000026a280013002000b603070064065000a8
:101800009c9f9f0015003b0063061600c0ff2f0041
:10181000000666008c01ea00939f9f00ed9e210068
:101820000800be000a01be00090037000c08a30032
:10183000050032001d0278009d0290002d039000eb
:10184000bd039000460407000c86d100e8864600e0
:101850000c00e000f5ff3c001a0037000c00e0002f
:101860001a003200c0ff2f00000666009c9f9f00f8
:10187000ed9e21006000b8000200200003ff23005d
:10188000090037000c08a300050032001d02780093
:101890009d0290002d039000bd03900030040700ce
:1018a0000c86d100e88646000c00e000f5ff3c0005
:1018b0000002be000203be000800be000a01be0016
:1018c0002a0307000004be000205be00de089000e7
:1018d00060c6b3000ff29700804f52000400320040
:1018e0006000200062c4b300824f520002003a0040
:1018f0009f9a97006a80420081004000f1b79f00e4
:1019000001037800f30f5300020034003701200078
:10191000f7b79f0000c3b300c0779f0056fb2f00ae
:101920000f0343000e007800a0b79f000607780061
:101930003d0037000800be000a01be00d8030700c2
:101940000006be007fb1970068015100f2b79f000a
:101950004240a9000c003400fd0307000002be0055
:101960000203be000800be000a01be0072040700a8
:101970006022b80046782d0077192400f80307008c
:101980000004be000205be00e80047008e002000f3
:101990000802be000a03be00b4b79f00c5b79f008f
:1019a000d6b79f00e7b79f000c01be000104780086
:1019b0000c003700a400200005002000c0fd2f000f
:1019c0000f0040008a0107006fa89700ffa897004a
:1019d0000fb197009fb1970005c3b30005644100a4
:1019e0000001be00e00f5100e08f590003003400f9
:1019f0000e07e900e10f4700eeff3a00880078008b
:101a00003fb49700cfb497005fb59700efb597004c
:101a10000200370000c3b300806078000e07e900c1
:101a2000fcff3b00688740007fb397000600e000a2
:101a3000070034006022b8006033b8000800be0020
:101a40000a01be00c40207000000e000b9ff3c002c
:101a50000e0378002fb7970051fb2f008f804000b6
:101a6000010353009f9b970067804300909f9f0056
:101a7000020037000603e9000000e90001017800d8
:101a80008200780003c3b300b1cf1100f9ff320028
:101a9000909f9f00de09900061c6b3000ff297008f
:101aa000814f52000300320061c4b300814f5200e5
:101ab00002003a000000e8000a0037001000200091
:101ac00051c6b3008ff2970081cf5200050032005b
:101ad0000540780050c4b2000080fb000000e9001f
:101ae0004f00de0083014000868f5100010034006a
:101af000860178000300e0001d00350000c3b3003c
:101b0000868f510006003d000302410069404000fd
:101b100041c3b30094cf100001003c006940500065
:101b20008300e90081004100010037008401780052
:101b30000302e90001037800a142780080cf52003f
:101b4000faff320091c3b300814f500001003a0008
:101b5000054be8000400e00005003d000201e9003b
:101b60008301e8001f9b97000603e800969f9f00f3
:101b70008ff397008700fb001f9a97000e007800f4
:101b8000060007004f0778004f06be004f05be0055
:101b90004f04be002f04b10000000600f08747008c
:101ba000889fbe008a9fbe008c9fbe008e1f78005b
:101bb00000047800814478000205be000406780025
:101bc0000b00e00002003c001b002000eaad2100f9
:101bd00060c6b30080cf54000e00320060c4b30072
:101be00080cf54000b00320070c6b30080cf540089
:101bf0000300320070c4b30080cf540085003a0067
:101c0000e40f46008300350058089000800f56000e
:101c100080003d000c06e80060c6b30080cf540091
:101c20001000320060c4b30080cf54000d003200b9
:101c3000081090000038a30004003a0058089000f3
:101c4000808f550001003d005b0c98005808900003
:101c50000c005000500c980002003b000000eb000c
:101c6000500c980098089000680090000c00e0006c
:101c700028003c000100400002c3b3000248780085
:101c80008100e800110c9800580890000000e00066
:101c900003003c00081090000038a300060032004a
:101ca0006800900001004000e2c2b30002487800e2
:101cb0008100e800110c9800580890008c00ea00a0
:101cc000810f500001003d000006ea008c00ea0090
:101cd000210c9800000646005c0c98008b0f560003
:101ce000010034000b0678003c0c9800e8009000de
:101cf00018089000008040000c0178008a007800ed
:101d00004afd0700580890000c0650004c0c980043
:101d1000940037008c8f550019003d0001004000f1
:101d20000b0178008a00780040fd07001808900039
:101d300000804500100c98008b0556002b0c980075
:101d4000d80890000100e00003003c0088109000db
:101d50000138a30007003200e80090000080400036
:101d6000e1c2b30001487800380890000000e800a4
:101d7000300c980058089000400c9800790037000b
:101d8000010040000c0178008a00780027fd070060
:101d90001808900000004600100c98008c85550033
:101da000d80890000100e00003003c00881090007b
:101db0000138a30006003200e80090008080400057
:101dc000e2c2b300824878000000e800100c9800de
:101dd00058089000808f550001003400800578007d
:101de000e800900018089000008040008c0045003a
:101df0000b0178000dfd0700180890000b00400053
:101e0000100c9800580890008b0550002b0c98007f
:101e10005400370018089000e800900080804000cf
:101e20009a4878000000e800100c9800d80890004c
:101e30000100e00003003c00881090000138a3007e
:101e400006003200e800900080804000e2c2b3004b
:101e5000824878000000e800100c980058089000b4
:101e60000000e000100034008b05e900808f550071
:101e70000100340080057800e80090001808900008
:101e8000008040008a00e8000b017800e7fc0700b2
:101e9000180890000b004000100c980058089000a3
:101ea0008b0550002b0c9800e8009000180890005b
:101eb00000804000095878000007e8000c00e000ae
:101ec00004003500b1c2b300014878008e047800e8
:101ed00004003700d1c2b300014878008e047800b6
:101ee0000c06ea007d8557008006eb0009003700ec
:101ef000a20020008c00780072805700310007009b
:101f00007fb097008fb89700016d780000067800c9
:101f10008d06e8000c00e000f5ff3c000d00e0003d
:101f200009003a008e04780000c3b300805c78009a
:101f3000050037008d06e900fc8057000d80400049
:101f400001c3b30090dc40000d00e000f9ff3c004d
:101f5000e800900018089000008040008084540041
:101f6000390c98000810900074006000f00f5000c9
:101f70000e003a0098089000780090000080400021
:101f8000a808900001004000b8089000010040003f
:101f9000c808900001004000f8089000810f500030
:101fa00002003d0000805000000c98004f077800b0
:101fb0004f06be004f05be004f04be000f01b1002a
:101fc000000006008002780001037800110009007b
:101fd0000203d80080017800830a78008299b90052
:101fe000820053009102980005007800000006006e
:101ff000881f78008a9fbe008c9fbe000004780076
:102000000205be000406be000401be000a00be00b8
:10201000b0010700008cbe000c01be00c802070022
:102020000005550081855d002a0498003b04980056
:10203000080078004f06be004f05be004f04780030
:1020400000000600020037000304e0000600320032
:102050000001780002007800b041780081cf510083
:10206000f9ff3a00010037000001eb0002007800a0
:1020700000000600889fbe0000047800e68440004f
:102080001900d0004500de00f27f2000820f5000d2
:1020900010003a00000ceb00990478006f81640096
:1020a000200020001b003a00210190000200e00007
:1020b00018003a00110190000200e00015003a00fb
:1020c000100020001100e00012003200200020006b
:1020d000100037000000e00004003a000100780022
:1020e000cc0007000000e00008003c00f2002800df
:1020f0001901610001fe2300810c710021c02f0035
:10210000010c40000080eb0002003700000ceb00e7
:102110000000eb004f04be00000006000400fa00bf
:10212000889fbe008a9fbe008c1f78000004780044
:1021300001067800f80d9000780090008085550029
:10214000080890008085550018089000808555008b
:10215000280890008085550038089000808555003b
:1021600048089000808555000002220090bf9f0023
:1021700000032300a0bf9f00081090000028a300c8
:1021800015003a000b00e000130034000b05780046
:102190008a047800e20f5500010036002900200073
:1021a000c801900009017800ee80570058009000a7
:1021b00003000100500498000000e0008c00320091
:1021c0006808900009004000600c9800090555005f
:1021d0004240a900eeff3c00780190000200e000c0
:1021e0000c003400c80190008c007800580090006a
:1021f00003000100500498008080eb000000e00024
:102200007c003200e80890007800900000804000d8
:10221000600c9800880c90000900e0001100340068
:1022200009057800e28f5400010036002a002000e2
:10223000c80190000a017800ec8057005800900017
:1022400003000100500498000000e0006800320024
:10225000680890000a004000600c98008a845400ce
:10226000edff3700180990000200e0000c00340078
:10227000c8019000e80090005800900003000100a1
:10228000500498008080eb000000e000590032000c
:10229000e80890001808900000804000600c98004a
:1022a000a80c90000900e000110034000905780036
:1022b000e28f5400010036002a002000c80190007f
:1022c0000a017800ec8057005800900003000100dc
:1022d000500498000000e0004500320068089000bb
:1022e0000a004000600c98008a845400edff37001b
:1022f000380990000200e0000e003400e800900071
:102300001808900080804000c8019000580090009c
:1023100003000100500498008080eb000000e00002
:1023200034003200e8089000380890000080400037
:10233000600c9800c80c90000900e0001100340007
:1023400009057800e28f5400010036002a002000c1
:10235000c80190000a017800ec80570058009000f6
:1023600003000100500498000000e000200032004b
:10237000680890000a004000600c98008a845400ad
:10238000edff3700081090008000eb000028a3004c
:10239000180032000b00e000160034008b047800b7
:1023a00009057800e28f5400010036002a00200061
:1023b000c80190000a017800ee8057005800900094
:1023c00003000100500498000000e0000800320003
:1023d000680890000a004000600c98008a8454004d
:1023e0004240a900eeff3c008000eb0001003700f6
:1023f0008080eb00010078004f0678004f05be009a
:102400004f04be000080fa000000060001087800ba
:1024100000000600e60040001101780005002800d9
:10242000850261006f0161008208780002003200bd
:102430001200200011003700a001900012002000bf
:102440000300e0000d003a00900190000300e0005e
:102450000a003a001000e00008003a003600370099
:10246000640340009608780080017800530b7800e0
:10247000900978000408780070015100110278007a
:102480000400e000f6ff3200130037006402400051
:10249000140378004f33de0083814100830873000a
:1024a00080017800d3037800cf3bde00140378006e
:1024b00006034300068a73001302780004024200f8
:1024c000100378004f33de00860972009001780017
:1024d000038841000201e90091017800ef8f51006b
:1024e000eaff3600100037008001780053037800bf
:1024f0004f33dd001002d100040873006402400075
:1025000094037800cf3bdd001303d100868973006c
:10251000110378004f33dd009401d100030a7300ea
:102520009108d1000201e80091017800ff8f51006d
:10253000edff3e00ef886100918872000200780094
:10254000000006008f1fd100010207008f87e900fd
:102550000000e00000000600809feb00fc01070087
:102560008f87e9000000e000000006002800fa0064
:10257000889fbe008a9fbe008c9fbe0003866b00b2
:102580008f0007006400e100440032006408e100ad
:102590004a0032006100e100460032006108e100bb
:1025a00049003200ec0647006000b8003d02be0062
:1025b0003d03be00f48657006011b8003d04be0024
:1025c0003d05be007d0320000b0037000000a00089
:1025d0008d06e900130032000402420085824a00a1
:1025e00006034b0087834b000000400081804800b9
:1025f00002014900838149000802520089825a0081
:102600000a035b008b835b00f0ff3b000802420083
:1026100089824a000a034b008b834b008d06e90038
:10262000edff3a008482720086827200f707b200e2
:102630008782720001003200150020001e04900005
:102640003e0b900006035400e63fb0000368a30071
:10265000070032000000a7000500a0008301d100a0
:102660000281d3008180d3000080d3000603e800fc
:102670008301d1000281d3008180d3000080d30088
:102680000002eb000482d2002100070003f0a10049
:102690000cf0a70003f0a0005d00370064024700c3
:1026a0006408e100570032003400be003401be006f
:1026b000f6ff37006108e100520032006011b800f7
:1026c0006000b800f1ff370003ff27000200200080
:1026d000fbff3700839f68000100e00002003d001f
:1026e00060001000e08018000300e00002003d00e0
:1026f00060011100e081190024fa07004f00e0009a
:1027000002003b0060001000e0801800000006009e
:102710001800200057002000080453000d003d0061
:102720000600200097fc2f000740e1001e00340047
:1027300084827200610260008301d1000281d300b3
:102740008180d3000080d3000804e800f8ff3a003d
:102750004700200061046000050474000404640064
:102760000d00320061004000e08048006001490037
:10277000e081490003b8a500070032000603e80025
:102780006538e10004003a008301d1000281d300e2
:102790008180d3000080d300f87f20000830e10062
:1027a00003003500080378006000b8006011b8002d
:1027b0004433dd00f300b200830173000000060023
:1027c000680447000294be000094be00fc04470069
:1027d0008694be008494be0009007800a60107001c
:1027e00008007800a401070099007800814f70006c
:1027f0000b003b000800be007e0107004f00b10047
:1028000003003700f3ff2700f2ff2f006110b9002b
:102810004f06be004f05be004f04be000080fa0008
:1028200000000600810378008ff907000001be0058
:102830006000b8000478a30013003a006220e100b1
:1028400015003e000d0039008301d1000281d30044
:102850008180d3008301d1000281d3008180d30025
:102860008301d1000281d3008180d3000538b000fc
:10287000c42add00f300b2008381720007f0a700d4
:1028800003f0a00000000600f3ff2700f2ff2f0076
:102890006110b900fbff370003ff2700f7ff370087
:1028a0001400fa00889fbe008a9fbe008c9fbe0065
:1028b0000004be000205be00680047000a90be008a
:1028c0000890be006c0107000070a7000bf0a1008b
:1028d000304320009e02900080825200b0fe2f0004
:1028e0000028e10011003d00b0fc2f000028e100ad
:1028f000150034001e0990008e0890007e009000a4
:102900000501b0000201d1008180d3000080d30016
:102910008502e800fbff3a000b00e000bcff3b0033
:1029200060001000e0801800b9ff3700f0ff2f00b2
:10293000f1ff27000b00e000b5ff3b00010028007d
:1029400000002000b2ff37006000b800b0ff370081
:102950004f89de00820178006e0137000000000020
:102960002800fa00889fbe008a9fbe008c9fbe0090
:1029700003866b0092ff07000028a30064003a0062
:102980000128a30068003a000008a30062003a0092
:102990000108a30066003a001e009000be089000e7
:1029a00081064000ed3fb100f4805700ee01900039
:1029b000111ab8008e099000311bb8009e099000d2
:1029c000311cb800511db800f485570046000700bf
:1029d000fe0190003a0007008b85e8003e000700ea
:1029e0008e09900040000700ee01900034000700bf
:1029f0008b85e800380007008e0990004000070032
:102a00009e0990001b18b800890440000a85480000
:102a1000fe019000340007008b85e80038000700b5
:102a2000ee019000300007008e0990001b18b800de
:102a3000890440000a8548000a98a30008003a006b
:102a40000402420085824a0006034b0087834b0044
:102a500008044c0089844c000a054d008d06e900ed
:102a600084827200850273004c3add008502720098
:102a70000100320015002000443ade001400b200cc
:102a80004538de00cb45dd000b007000c540de00a0
:102a9000cb4ddd008b8070004549de00cb55dd005d
:102aa0000b017100c551de000d03780018ff07000f
:102ab00003f0a1000cf0a70003f0a00054ff3700c2
:102ac0001b18b8008502400006834800e0834b00d5
:102ad00060044c00070037001b18b80006034000d4
:102ae00087834800faff37001b18b80087034000af
:102af00008844800e0844c0060054d00000006009a
:102b00001b18b8000804400089844800faff370009
:102b10000108a3003bff3a005800be00000000007f
:102b20005801be00e2ff37000008a30035ff3a005d
:102b300009047800f8ff370007f0a200060037000c
:102b4000020ab900001bb9000200b800810042006f
:102b500081004300000006002800fa00889fbe00a4
:102b60008a9fbe008c9fbe0007067800878669009a
:102b70000c003b00030478008704780008f0a100f3
:102b800009f0a100840f5000858f5800860f59006e
:102b9000890f5c00030033000cf0a20001003a0032
:102ba0000cf0a10006ff07006400e1005f003200a6
:102bb000780147006408e100610032006c014700c1
:102bc000748557003200be001201be003a04be00f8
:102bd0001a05be001e039000be0a90008503530034
:102be00006003d000004fd008104fd000205fd001b
:102bf0008305fd008703ea00050378000df8a300b4
:102c00000400320060041400e0841c0060051d0014
:102c1000e0851d006022b8007d0320000d38e10032
:102c20008006eb000b0039004433dd00f300b200f6
:102c30008301730039003700848272000d0278002e
:102c4000e10664008b85d1000a85d3008984d30016
:102c50000884d3008703e900f7ff3b000800400029
:102c6000898048000a0149008b81490004003b002b
:102c700060001000e080180060011900e081190078
:102c80000358a300090032008d8272008482720012
:102c9000610260008301d1000281d3008180d300f2
:102ca0000080d3000603e8001b0037000348a300a0
:102cb00017003a000600e000170034000603e900a0
:102cc0000d00a30000004800818048000201490077
:102cd000838149000348a3000f003a000600e0008a
:102ce000090034000603e90000004000818048002c
:102cf000020149008381490001003a000003eb0012
:102d00000348a300f5ff32006022b800020037003c
:102d100084827200618266007dfe070003f0a100dc
:102d20000cf0a70003f0a000b9fe370064014700d3
:102d30006408e10002003a000df8a300b1fe3a0079
:102d400032007800b20078001201be00b0fe3700f9
:102d5000889fbe008a9fbe008c9fbe000404be00f8
:102d60000605be00809fbe00829fbe0030000700a7
:102d7000040678000800be000a01be002c0007000f
:102d8000840678004f03be004f02be008d4f7600d0
:102d90007fb0970013003300f0ff2f008b8f6b0084
:102da00006003b000d0666000c00a7000a00370075
:102db00007f0a600100020000a003700880f52001c
:102dc000898f5a008a0f5b008b8f5b0003003900ec
:102dd0001000200001003e000000200007f0a700c6
:102de0000000ea004f06be004f05be004f04be00c3
:102df00000000600e48240001078a30007003200c3
:102e0000640240001178a3003400be001401be002b
:102e1000050032000330a7000000060035007800ee
:102e2000350078001501be000330a0000000060048
:102e300005ff270005826100070032000428e10039
:102e400001003200240005000600070001003a00de
:102e5000440005000408050002000700f9ff3a00dd
:102e6000140005006f82610081027000850271000c
:102e700085027200000006005002be00e40050000f
:102e80005003be004439de00f700b200f37f20009b
:102e900003016100090032000218e10016003a0047
:102ea0008501720083017300838173000008200094
:102eb00015003a0040002000130037008501720021
:102ec000830173008381730005003a0004a8be00eb
:102ed00006a8be00100020000b0037000201e90028
:102ee0000402420085824a0006034b0087834b00a0
:102ef0000748a300f9ff32000740a00004a8be0065
:102f000006a8be00200020008000980092009800d3
:102f100000000600881f7800030478000300e0002a
:102f200007003d0060001000e080180060011900fb
:102f3000e081190002003b0001f02d000300370082
:102f40000400070008f0a70003f0a0004f04780079
:102f500000000600889fbe0000827000040271001d
:102f6000048271002400320036432000c500200096
:102f70008383cf000a0039000541b1008283cf006e
:102f8000070039000541b1008183cf0004003900fa
:102f90000541b1008083cf00010039000541b10037
:102fa00085c353006022b800120032000a003b00c3
:102fb00084827200610260008301d1000281d3002b
:102fc0008180d3000080d3000603e8008743e80037
:102fd000f7ff3a00070037000000400081804800fa
:102fe00002014900838149000603e9008743e900a3
:102ff000f9ff3a00c6fd07004f04be0000000600be
:020000040000fa
:10300000000000009500000000000000000000002b
:1030100001000000f90000000000000000000000b6
:10302000080000008700000004000000000000000d
:1030300009000000af0000000000000001000000d7
:103040000a0000001b00000000000000010000005a
:103050000c000000c30000000100000000000000a0
:103060000d000000af0000000200000000000000a2
:1030700010000000ff000000000000000000000041
:1030800011000000ff00000000000000010000002f
:1030900012000000ff00000000000000010000001e
:1030a00018000000ff000000000000000100000008
:1030b00019000000ff0000000000000001000000f7
:1030c00020000000ff0000000000000000000000e1
:1030d00021000000ff0000000000000000000000d0
:1030e00026000000df0000000100000000000000da
:1030f0003700000073000000000000000000000026
:103100003a0000002500000004000000000000005c
:103110003b0000002500000000000000000000004f
:1031200029000000ff000000040000000000000073
:1031300017000000ff000000000000000000000079
:10314000809a0000454100008e4100008f80000001
:103150004545000045490000494900008e8f0000a8
:1031600090920000924f0000994f000055550000ca
:10317000599900009a9b00009c9d00009e9f0000b2
:10318000414900004f550000a5a50000a6a700007a
:10319000a8a90000aaab0000acad0000aeaf0000d3
:1031a000b0b10000b2b30000b4b50000b6b7000083
:1031b000b8b90000babb0000bcbd0000bebf000033
:1031c000c0c10000c2c30000c4c50000c6c70000e3
:1031d000c8c90000cacb0000cccd0000cecf000093
:1031e000d0d10000d2d30000d4d50000d6d7000043
:1031f000d8d90000dadb0000dcdd0000dedf0000f3
:10320000e0e10000e2e30000e4e50000e6e70000a2
:10321000e8e90000eaeb0000eced0000eeef000052
:10322000f0f10000f2f30000f4f50000f6f7000002
:10323000f8f90000fafb0000fcfd0000feff0000b2
:10324000222a00002b2c00003a3b00003c3d0000ed
:103250003e3f00005b5d00007c7f000000460000f8
:103260004154000000460000415400003332000089
:1032700000000000303a0000005800002c20000040
:10328000592c0000205a00002c200000540d000092
:103290000a000000783100002c2000007931000085
:1032a0002c2000007a3100002c2000007431000036
:1032b0000d0a000000780000322c00002079000088
:1032c000322c0000207a0000322c00002074000014
:1032d000320d00000a000000445500004d4d000072
:1032e000592e0000435300005600000025660000e0
:1032f0002c200000256600002c2000002566000020
:103300002c20000025660000200d00000a000000af
:10331000582c0000205900002c2000005a2c0000de
:10332000207400000d0a000000410000434300002b
:10333000454c00002e4300005356000000000000e2
:10334000b2710000447900001a720000347200006b
:103350006672000094720000c4720000d072000017
:10336000f6720000da720000b27100004e790000bf
:103370001a7200003472000066720000947200003d
:10338000c4720000d0720000f6720000da72000011
:10339000303a000000480000454c00004c4f00004f
:1033a0002e5400005854000000480000656c0000d6
:1033b0006c6f0000205700006f7200006c6400000a
:1033c000210000007f00000000000000000000005d
:1033d000000000006300000000000000000000008a
:1033e00000000000260100000000000000000000b6
:0433f00000000000d9
:020000040000fa
:1033f4000400fa00100798001e0090000000e80086
:10340400104078000080fb00000f78001e00780058
:10341400c800dd001e009000104078000080fb0012
:10342400008f70001e0078000080fa000000060083
:103434000600fa00200798002e0090006300400068
:10344400104078000080fb008000eb00008fbe007d
:103454001e0078009e0090004809dd00c801de00cf
:10346400830171004801dd002e0090000080e80017
:10347400104078000080fb008000eb00001f71000a
:10348400019771001e0078009e0090004809dd003d
:10349400c801de00830171004801dd002e009000a8
:1034a4000000e800104078000080fb008000eb0082
:1034b400001f7100019771001e0078009e009000ab
:1034c4004809dd00c801de00830171004801dd0008
:1034d4002e009000104078000080fb008000eb007c
:1034e400001f7100019771001e0078009e0090007b
:1034f4000080fa00000006000400fa00000f7800c3
:10350400110798001e009000804078001e0078008b
:10351400014878001e0fe8001e0090004800de00fd
:10352400100798001e009000804078001e0078006c
:10353400014878001e0fe8000080fa000000060031
:103544000600fa00000f780012079800230798007d
:103554001e009000804078001e007800014878002a
:103564001e0fe8001e009000ae0090004809dd0028
:103574004800de0000007100c808de001007980053
:10358400210798001e009000804078001e007800fb
:10359400014878001e0fe8001e009000ae00900065
:1035a4004809dd004800de0000007100c808de00a4
:1035b40010079800210798001e00900080407800b2
:1035c4001e007800014878001e0fe8001e009000dd
:1035d400ae0090004809dd004800de0000007100e4
:1035e400c808de0010079800210798001e0090000c
:1035f400804078001e007800014878001e0fe80023
:103604000080fa00000006000a00fa002007980073
:103614003107980042079800ae009000010f78002f
:10362400be009000110798004e0090000000e000da
:103634000e0032001e009000904078001e007800ba
:10364400014878001e0fe8001e0090000000e8000a
:10365400100798004e0090000000e9004007980011
:103664004e0090000000e000f2ff3a000080fa00f3
:10367400000006000800fa001007980021079800cf
:10368400320798009e009000010f78002e009000f1
:10369400804078001e007800014878001e0fe80082
:1036a4003e0090000000e900300798003e009000c2
:1036b4000000e000f5ff3a000080fa000000060078
:1036c4000c00fa0030079800410798005207980050
:1036d400be009000010f7800ce0090001107980002
:1036e4000000eb00200798001e00780010407800ce
:1036f4008080fb001e009000104078000080fb00da
:1037040000805000200798001e0fe8001e00900063
:103714000000e800100798005e0090000000e90037
:10372400500798005e0090000000e00003003200a3
:103734002e0090000000e000ebff32002e0090000d
:103744000080fa00000006000400fa00000f780070
:1037540011079800010037001e0fe8001e007800d2
:10376400104078000004e000060032001e007800db
:10377400104078008000fb001e009000808f5000f5
:10378400f5ff3a001e007800104078000000fb00ae
:103794000080fa00000006000200fa00004f7800e2
:1037a4001e4078000004e000020032000000eb003c
:1037b400010037000000eb000080fa000000060062
:1037c4000200fa00004f78001e4078000004e00078
:1037d400020032000000eb00010037000000eb00a3
:1037e4000080fa00000006000400fa0010079800a8
:1037f4000000eb00000f78001e00900030409000a5
:103804000004e000390032001e009000901890007f
:10381400001890001e01900046032000020343009c
:103824001e01900092429000140020000001be008e
:103834008600780005407800ef2c07000000e000c7
:1038440028003a001e0090008040eb0031409800b0
:103854001e00900000199000901990001e00900026
:10386400b010900020109000000151008181590097
:103874001e009000f008900060089000800f510036
:10388400818f5900190031001e00900020409000e3
:10389400e24f500015003a001e00900000199000fd
:1038a400901990001e009000f008900060089000ad
:1038b40002004000838048001e019000460320005f
:1038c400020343001e019000924290001400200065
:1038d4000001be008600780005407800c62c070071
:1038e4000200370010002000000f78001e0078004e
:1038f4000080fa00000006000800fa001007980093
:1039040022079800330798000000eb00000f7800ae
:103914001e00900000199000901990002e00900055
:10392400be009000800f5100818f59001c003200ae
:103934001e009000acff0700000f78001e00780006
:103944000000e00016003a001e0090004103200031
:10395400808040001e009000104090001400200061
:103964002e019000be019000862c07000000e000ac
:10397400060032000080eb008080eb0020079800f6
:103984003107980010002000000f78001e009000fe
:103994002e019000be0190000218980013189800a0
:1039a4001e0078000080fa00000006000400fa00ff
:1039b400100798001e0090008bff0700000f78008e
:1039c4001e0078000000e0004e003a001e00900047
:1039d40010407800e34f500041003a001e00900070
:1039e40040409000e14f50003d003a001e0090001e
:1039f4004003b000022020008000eb001dff070000
:103a04001e0090002023b00051a52a00bafe070032
:103a14001e0090004003b000222525001316240048
:103a2400c7fe07001e0090008021b0002227270057
:103a340013142600c2fe07001e0090009008900098
:103a4400000890001e019000c421200002024200e0
:103a54000001be0004007800b9fe07001e009000bb
:103a6400f0009000600090001e01900004222000ed
:103a7400020242000001be0004007800b0fe07000c
:103a84001e00900090109000001090006100400013
:103a9400e08048001e019000001998001119980058
:103aa4001e00900090189000001890001e019000d5
:103ab40046032000020343001e019000924290003e
:103ac400140020000001be00860078000540780044
:103ad400492c07001e0090008040eb0041409800f4
:103ae4001e009000104090000001eb008040eb00ad
:103af4005e2c07000000e0000200320010002000ed
:103b0400000f78001e0078000080fa000000060014
:103b14000600fa00000f78001207980023079800a7
:103b24001e009000ae00900062005000e08058003b
:103b340010079800210798001e007800d008900014
:103b44004008900062015000e08158001e0090007f
:103b5400ae009000800f5100818f590002003e009a
:103b64006000b800120037001e0078006012900058
:103b7400f01290001e007800500090008000eb00ce
:103b84001e0190008191b900ae019000809bb900a4
:103b940086017800030141009e0190000018b800de
:103ba4000101410082007800040040008580480043
:103bb4000080fa00000006001000fa005007980088
:103bc40062079800730798005e00900090007800e8
:103bd400210798006e019000fe0190001000200063
:103be40001002000800f5100818f59000800360029
:103bf4002e00900040099000d00990006e009000c3
:103c0400fe009000800f5100818f590004003e0097
:103c14001000200001002000008fbe00b300370018
:103c24000080eb008080eb00008fbe002e0090002f
:103c3400104078000080fb00e20f50005900320071
:103c4400e30f500074003200e10f50009c003a0072
:103c54006e029000340798003e0090000000d100ee
:103c6400be00900000804000300798002e009000b5
:103c740020119000b01190003e0090004900de0039
:103c84008000eb0002004000838048000001be0079
:103c94002e00900018ff07000000e0008c003a009e
:103ca400be009000f01f200000806000ae00900075
:103cb4004003b00000804000104078000080fb000a
:103cc400400798003e0090000000e800300798008c
:103cd4002e00900020119000b01190003e00900042
:103ce4004900de008000eb000200400083804800b1
:103cf4000001be002e009000fffe07000000e0005f
:103d040075003a00be009000f01f200000806000a3
:103d1400ae0090004003b0000080400010407800e6
:103d24000080fb004800dd00ce0090000100700020
:103d3400400798006e009000610060000040780029
:103d44000004e000040032004e0090004400de0055
:103d54006101b800110037004e0090006101b80005
:103d6400f0ff200001002000020278000301780027
:103d74008001780001007800030262000000610005
:103d84008000eb00c000dd00000020000001be0048
:103d94006120b8000001710081817100028fbe00b2
:103da400520037002e00900020119000b0119000b6
:103db4006e009000fe009000480add004800de001e
:103dc40000007200c808de00020040008380480042
:103dd4000001be002e009000c7fe07000000e000b6
:103de4003f003a002e0090004103200080804000f4
:103df4006e0090000000400000017800f01f2000d9
:103e0400000061000080400079fd07008000eb00a5
:103e1400008fbe00350037002e0090002011900066
:103e2400b01190006e009000fe009000490add0081
:103e34004700de0000007200c708de0002004000f8
:103e4400838048000001be002e009000aafe0700f7
:103e54000000e00024003a002e00900041032000fe
:103e6400808040006e0090004201dd00f01f2000c1
:103e740000006100008040006dfd07000001be00ed
:103e8400f0ff2f00f1ff2000020278008301780088
:103e940000017800010078000201620000806100e6
:103ea4008000eb00c000dd0000002000008fbe0099
:103eb4006110b8001e1f70001e9770000b003700c1
:103ec4001000200001002000008fbe000700370012
:103ed4000000000005003700000000000300370068
:103ee4000000000001003700000000001e00780000
:103ef4009e0090000080fa00000006001000fa0006
:103f0400889fbe0030079800420798005307980026
:103f1400640798007507980020002000000f7800bf
:103f24004e019000de0190001000200001002000ee
:103f3400800f5100818f5900f70036003e00900039
:103f440040099000d00990004e009000de009000df
:103f5400800f5100818f5900ef0036003e00900021
:103f6400104078000080fb00e20f50007300320024
:103f7400e30f500092003200e10f5000e6003a00d7
:103f8400ce009000110798001e0090000000d100a0
:103f94009e00900000804000100798003e009000b2
:103fa40020119000b01190001e0090004900de0026
:103fb4008000eb0002004000838048000001be0046
:103fc4003e0090004cfe0700000f78001e007800b1
:103fd4000000e000c9003a003e00900041032000c8
:103fe400808040001e019000f01f2000000061004e
:103ff40000804000200798001e0090000000e800a8
:10400400100798004e0090006100600000407800a6
:104014000004e0000a0032002e00900010407800f6
:10402400ef4060006e009000004078000080fb00cc
:104034004400dd000040780000c07000020037003a
:104044006e00900000407800ae0090008048780038
:104054003e00900011c0b300314098003e00900033
:1040640020119000b01190001e0090004900de0065
:104074008000eb0002004000838048000001be0085
:104084003e0090001cfe0700000f78001e00780020
:104094000000e0009b003a003e0090004103200035
:1040a400808040001e019000f01f2000000061008d
:1040b40000804000200798004e00900061006000de
:1040c400004078000004e000080032006e00900018
:1040d400fe0090004c09dd004400de000000710089
:1040e400c408de00004078000e0037002e00900067
:1040f400104078008040780000cfb30000c1600019
:104104006e009000fe009000c809dd004800de004b
:1041140000807100c808de00004078006f40600035
:1041240000407100ae009000804878003e0090008e
:1041340011c0b30031409800770037003e00900072
:1041440020119000b01190004e009000de0090000d
:10415400480add004800de0000007200c808de00e6
:1041640002004000838048000001be003e00900031
:10417400e1fd0700000f78001e0078000000e00059
:1041840062003a00ee0090003e00900042032000de
:10419400000141004e0090000000400080017800c2
:1041a400f01f20000080610000004100d2fc0700e5
:1041b4003e00900011c0b300314098005600370013
:1041c4003e00900020119000b01190004e0090002d
:1041d400de009000490add004700de0000007200a6
:1041e400c708de0002004000838048000001be00d2
:1041f4003e009000c0fd0700000f78001e0078000c
:104204000000e00043003a006e019000fe019000bf
:10421400f0ff2f00f1ff20000202780083017800f4
:104224000001780001007800020162000080610052
:104234008000eb00c000dd00000020000004be0090
:104244006110b80000047400818474003e00900082
:1042540041032000808040004e0090004201dd00b8
:10426400f01f2000000061000080400070fc070087
:104274000001be000000200001002f0002027800af
:1042840003017800800178000100780003026200d5
:10429400000061008000eb00c000dd000000200091
:1042a4000001be006120b80000017100818171002d
:1042b40002007400838074006007980071079800fe
:1042c4003e00900041032000808040004e0090009a
:1042d4004201dd00f01f200000006100008040006a
:1042e4006e019000fe01900095fc07003e009000d6
:1042f40011c0b300314098000700370000000000ef
:104304000500370000000000030037000000000033
:1043140001003700000000001e0078004f04be00ba
:104324000080fa00000006001200fa00400798001e
:10433400520798006307980074079800050f9800c7
:104344000000eb00000f78004e0090009000780011
:10435400110798005e019000ee019000100020000b
:1043640001002000800f5100818f590008003600a1
:104374001e00900040099000d00990005e0090005b
:10438400ee009000800f5100818f590002003e0022
:1043940020002000610037007e0090008e0890000d
:1043a400e00f5000e08f58000c0032000082eb0058
:1043b4008082eb007e0190008e0990001e00900028
:1043c400cefe0700000f78001e0078000000e00019
:1043d400020032001e007800500037005e01900099
:1043e400ee0190004e009000f3fd070020079800b6
:1043f400310798002e009000be009000e00f50009e
:10440400e08f5800430032002e019000be0190005e
:104414001000200001002000800f5100818f5900fe
:1044240002003a00200020003c0037002e019000da
:10443400be0190000080eb008080eb00800f5100f3
:10444400818f590002003a00100020003300370029
:104454006022b8005e019000ee0190001e00900002
:10446400a6fe0700000f78001e0078000000e000a0
:10447400020032001e007800280037001e00900061
:1044840000099000900990001e009000d008900050
:104494004008900062005000e0805800800f5100f6
:1044a400818f59000e0031001e009000900890008a
:1044b4000008900061004000e08048001e01900068
:1044c40000099800110998001e00900040409000d7
:1044d400804078000104a0001e0090004140980034
:1044e4002e019000be0190005207980063079800c7
:1044f4001e00900040099000d00990005e009000da
:10450400ee009000800f5100818f5900b3ff3e00f0
:1045140001003700000000000000eb000080fa00fa
:10452400000006001600fa00000f9800120f980011
:10453400230f98000e08900090007800510798000f
:104544001e089000ae089000e00f5000e08f580065
:1045540017003a005e00900060019000f0019000a6
:1045640022079800330798002e009000be009000a8
:10457400e00f5000e08f5800080032005e00900009
:1045840040099000d00990002e009000be009000d9
:10459400800f5100818f59002e003e001000200032
:1045a40001002000200798003107980029003700f7
:1045b4001e099000ae0990000e0890007efd0700d1
:1045c40060079800710798006e019000fe0190004a
:1045d4001000200001002000800f5100818f59003d
:1045e40003003e001000200001002000f800370006
:1045f4006e019000fe0190000080eb008080eb00d3
:10460400800f5100818f590003003a006e00900022
:10461400fe009000ee0037005e009000400990001c
:10462400d00990006e009000fe009000800f5100b1
:10463400818f5900030036006e009000fe00900048
:10464400e30037001e099000ae099000220798008d
:10465400330798005e0090009008900000089000d6
:10466400e00f5000e08f580002003a006000b800ec
:10467400d70037006000b800008fbe002e01900004
:10468400be0190001e089000ae089000800f5100fb
:10469400818f590045003a002e009000be00900022
:1046a4001200200003002000021f4000039748006e
:1046b4005e009000d008900040089000be0f5000ab
:1046c400ae8f580003003e002000200001002000af
:1046d400008fbe001e0178009e0190000e0890001d
:1046e40035fd070060079800710798006e0190007f
:1046f400fe0190001000200001002000800f5100f6
:10470400818f5900070032006e019000fe01900075
:104714000080eb008080eb00800f5100818f5900f6
:1047240003003a006e009000fe009000a8003700dd
:104734006e009000fe009000e00f5000e08f5800e3
:104744001a0032005e00900060019000f0019000b9
:1047540062079800730798006e019000fe019000b4
:104764001000200001002000800f5100818f5900ab
:104774000c0036005e00900040099000d0099000c3
:104784006e009000fe009000800f5100818f590050
:10479400040036006e019000fe019000220798008c
:1047a400330798006000b800008fbe001e00780038
:1047b4009e009000e00f5000e08f580041003a0046
:1047c4002e019000be019000028fbe000100370050
:1047d4000000000012002000030020001e0f410012
:1047e4005e9749005e009000d00890004008900059
:1047f400be0f5000ae8f58000c003e002000200079
:1048040001002000008fbe002e009000be0090002a
:104814001e0178009e019000800f5100818f590085
:10482400020036006000b800690037001e017800fd
:104834009e0190000e089000dffc070060079800be
:10484400710798006e009000fe009000e00f500089
:10485400e08f58001a0032006e019000fe019000b3
:104864001000200001002000800f5100818f5900aa
:10487400070032006e019000fe0190000080eb0002
:104884008080eb00800f5100818f590003003a00b3
:104894006e009000fe0090004d0037002e00900046
:1048a400be0090001e0178009e019000800f510010
:1048b400818f5900c6ff3a006000b80044003700f9
:1048c400000000000082eb008082eb001e017800f3
:1048d4009e0190005e00900088fd0700400798004c
:1048e4004e0090000000e0000c003a001e0890000a
:1048f400ae089000e00f5000e08f5800070032002f
:104904001e0278009e0290001e099000ae099000dd
:104914005e00900079fd0700400798004e0090006b
:104924000000e0001f003a005e0090001e017800c5
:104934009e01900062009800730098005e00900051
:1049440000099000900990005e009000d00890004b
:104954004008900062005000e0805800800f510031
:10496400818f590008003e005e009000900890007e
:104974000008900061005000e08058005e01900043
:1049840000099800110998005e00900040409000d2
:10499400804078000104a0005e009000414098002f
:1049a400090037004e009000e10f500003003a0068
:1049b4000080eb008080eb00020037001000200034
:1049c40001002000008fbe001e0078009e009000b1
:1049d4000080fa00000006001000fa00500798005a
:1049e40062079800730798005e0090007efb070042
:1049f4000000e00002003200100020003400370004
:104a04006e019000fe0190005e00900040fc0700e3
:104a140010079800210798005e0090001e01900086
:104a2400ae01900002189800131898005e009000e0
:104a34004003b000022020008000eb000dfb0700c3
:104a44005e0090004003b000300798001000200082
:104a5400400798000000eb00000f780002003700c8
:104a64004e0090001e0f40005e0090005000900029
:104a74009e0f50000f0036001e0078006101b80040
:104a84001e009000ae0090000200400083804800a9
:104a94005e019000924290004e0290000001be0020
:104aa400be00900005407800532807000000e00095
:104ab400ebff32005e009000500090001e00680082
:104ac40000f0a7000000ea000000ea004f00de004a
:104ad4000080fa00000006001000fa005007980059
:104ae40062079800730798005e00900090007800b9
:104af400210798006e019000fe019000f0ff2f0046
:104b0400f1012000800f5100818f590014003e00f4
:104b14006e019000fe019000f001200001002000d1
:104b24000202780003017800800178000100780017
:104b340003026200000061008000eb00c000dd00a1
:104b4400000020000001be006120b80000017100d7
:104b540081817100e00f5100e08f590002003200a2
:104b640020002000920037005e0090006e0190004b
:104b7400fe01900072009800030898005e00900007
:104b840030019000c0019000028fbe001e0078002a
:104b94009e009000e00f5000e08f580008003a009b
:104ba4002e00900010407800e24f500004003600c0
:104bb4002e00900040119000d0119000028fbe0092
:104bc4001e0078009e009000e00f5000e08f580017
:104bd40015003a006e009000fe009000c509de004a
:104be4004b0add004501de00020172002e00900038
:104bf400400090008000eb00800f5100818f59002d
:104c04000200390020002000690037002e009000c7
:104c1400d0109000401090005e0190003009980080
:104c2400410998003d0037002e009000500090008c
:104c34006101b8004918dd00c710de008100700072
:104c44004910dd003007980041079800250037001f
:104c54005e0090001e0178009e019000d6fb0700c4
:104c6400008fbe001e0178009e0190000080eb00c2
:104c74008080eb00800f5100818f590002003a00c0
:104c8400100020004a0037001e0178009e019000a9
:104c94001000200001002000800f5100818f590076
:104ca400060036002e009000d008900040089000c6
:104cb400be0f5000ae8f580002003e0020002000be
:104cc4003b0037006e019000fe0190003e00900012
:104cd400ce009000000051008180590060079800c8
:104ce400710798006e019000fe0190003e00900054
:104cf400ce009000800f5100818f5900d4ff310005
:104d04001e0178009e0190002e00900080fb070099
:104d14005e01900030099800410998005e009000ff
:104d24001e0178009e019000120898002308980044
:104d34005e009000c008900030089000e00f500022
:104d4400e08f580002003a002000200018003700cd
:104d54005e00900030099000c00990006e00900041
:104d6400fe009000470add004900de0000007200ea
:104d7400c908de0002004000838048005e01900004
:104d840030099800410998002e009000410320004a
:104d9400808040006e019000f01f20000000610040
:104da400808040005e009000510898000000eb00f5
:104db4000080fa00000006000e00fa005007980078
:104dc400610798005e009000900078002107980029
:104dd4005e00900080089000700090000002b00017
:104de4000180b00030079800410798005e009000f1
:104df400c008900030089000e00f5000e08f580089
:104e0400070032003e019000ce019000f0ff2f0019
:104e1400f1012000800f5100818f590002003600fb
:104e240040002000bb0037003e019000ce019000fe
:104e3400f01f200001002000020278000301780026
:104e44008001780001007800030262000000610024
:104e54008000eb00c000dd00000020000001be0067
:104e64006120b8000001710081817100e00f5100e0
:104e7400e08f590098003a005e009000c00890004e
:104e84003008900061004000e08048005e0190001e
:104e940030099800410998005e009000a008900035
:104ea40010089000e00f5000e08f580012003a0004
:104eb4003e009000ce009000c509de004b0add00e4
:104ec4004501de00020172002e00900040009000b7
:104ed4008000eb00800f5100818f59007e00390063
:104ee4005e0190006000b800300998004109980004
:104ef40040002000870037003e009000ce00900064
:104f0400c909de00470add004901de000201720022
:104f14002e009000500090000000e9008000eb009b
:104f24000202780003017800800178000100780013
:104f340003026200000061008000eb00c000dd009d
:104f4400000020000001be006120b80000017100d3
:104f540081817100e00f5100e08f59005e003a003a
:104f64005e009000a0089000100890005e0290007f
:104f74000001be00040078000ffb0700008fbe0094
:104f84001e0178009e019000100020000100200006
:104f9400800f5100818f590002003e002000200044
:104fa4005c0037001e0178009e0190000080eb0039
:104fb4008080eb00800f5100818f590002003a007d
:104fc40010002000530037002e009000d0089000fd
:104fd40040089000be0f5000ae8f580032003e00d3
:104fe4006e0090000000e00006003a005e019000b0
:104ff4006000b80030099800410998004000200082
:10500400440037005e009000a00890001008900053
:105014005e0290000001be000400780041fd07001c
:10502400008fbe001e0078009e009000e00f50002c
:10503400e08f580002003a0070002000350037006d
:105044001e0178009e019000100020000100200045
:10505400800f5100818f590002003a002000200087
:105064002c0037001e0178009e0190000080eb00a8
:105074008080eb00800f5100818f590002003a00bc
:1050840010002000230037001e0178009e019000cc
:105094002e00900050fe07000000e00002003200e5
:1050a400100020001b0037005e0090001e017800f5
:1050b4009e01900012089800230898001e017800b1
:1050c4009e0190002e00900091fa07005e0190006e
:1050d40030099800410998005e0090003e0190005c
:1050e400ce01900072009800030898002e009000f2
:1050f40041032000808040003e019000f01f20000a
:1051040000006100808040005e009000510898001b
:105114000000eb000080fa00000006000a00fa001c
:1051240030079800410798003e00900090007800f6
:10513400210798006011b8003e00900066fe070049
:10514400000f78001e0078000000e00029003a00fb
:105154000000eb00100798003e009000c00890008b
:10516400300890000001be002e009000e2f9070014
:10517400000f78001e0078000000e0001c003a00d8
:105184003e0090005008900010407800fb4f400013
:10519400050032003e009000500890001040780056
:1051a4000004e00008003a001e0090000000e8003f
:1051b400100798009e0090004e009000808f5000d1
:1051c40003003a000b0037000000eb0010079800c2
:1051d400110020003e009000f7fe0700000f780049
:1051e4001e0078000000e000dbff32000100370001
:1051f400000000001e007800e40f500002003a0096
:1052040070002000000f78001e0078000080fa0073
:10521400000006000800fa002007980031079800f3
:105224003e0090007a00400071f807008000eb0017
:10523400008fbe002e00900010407800e34f500015
:1052440008003a003e0090007400400068f807002f
:105254008000eb00c000dd00000020001e1f700075
:105264001e9770001e0078009e0090000080fa00d7
:10527400000006000800fa00000f780011079800eb
:105284002207980033079800ae0090001e0090009b
:105294007a00400098f807001e007800104078005b
:1052a400e34f500007003a002e009000be0090002b
:1052b4004008de00800078001e009000740040006a
:1052c4008df807000080fa00000006000800fa00cc
:1052d400300798003e009000900078001107980075
:1052e4006011b8003e009000fbfd0700000f78003d
:1052f4001e0078000000e000020032001e0078006a
:10530400380037003e009000c0089000300890003c
:105314000001be001e00900077f90700000f78001e
:105324001e0078000000e0002a003a003e009000d1
:105334005008900010417800424798004e40900079
:105344000004e00003003a0040002000000f780051
:10535400230037003e009000500890006b0040008e
:1053640010407800f2c3b300824060003e00900019
:10537400414098003e009000500890006b004000af
:10538400104078000080fb00680060000000e0002e
:1053940008003a003e009000fc0040003e009000ef
:1053a40050089000b2002000c5f807000000e0009b
:1053b4000a0032008000eb003e0090007efe0700f1
:1053c400000f78001e0078000000e000cdff3200de
:1053d4000300370000000000010037000000000057
:1053e4001e0078000080fa00000006000600fa00a3
:1053f400200798002e009000900078001107980074
:10540400110020002e00900044ff0700000f7800d8
:105414001e0078000000e00018003a002e00900002
:10542400c0089000300890000001be001e009000eb
:1054340031f90700000f78001e0078000000e0003a
:105444000e003a002e009000500890000202200046
:105454008000eb0087f807002e009000fc0040005d
:105464002e00900050089000b200200066f807005b
:105474001e00900011c0b300314098001e00780057
:105484000080fa00000006001200fa00700798007d
:10549400010f98000e0890009000780041079800d2
:1054a4007e0090007c00400050079800b20020006d
:1054b400010220005e0090006ef807000000eb007f
:1054c40030079800be00900021079800800020005b
:1054d40010079800ce0090002e009000008040003d
:1054e40090407800e0c2b30080cf500036003a000c
:1054f400ce0090002e009000008040001040780004
:10550400004f78002e0090000000e800200798006b
:10551400e0c2b3009e40780080cf50000b003a00f8
:105524002e009000e20f500008003e00de009000c4
:105534003e009000008040001e4878003e0090002d
:105544000000e80030079800e9ff3700f0c2b3001c
:105554009e40780080cf50000a003200c0c5b300de
:105564009e40780080cf50000600320000c2b30095
:105574009e40780080cf500002003600600020007a
:10558400b8003700ce0090002e00900080804000cc
:105594000e089000010878005e009000eb004000c7
:1055a40000c2b3001e417800804f510002003e004b
:1055b40040c2b3000100370000c2b3008048780045
:1055c4000000eb00a7003700ce0090002e009000f2
:1055d4000080400010407800004f78002e009000ba
:1055e4000000e8002007980000c2b3009e40780045
:1055f40080cf50007e003600f0c2b3009e40780099
:1056040080cf500009003200c0c5b3009e4078002e
:1056140080cf500015003a00050037002e0090009e
:105624000000e80020079800010037000000000097
:10563400ce0090002e009000008040009040780042
:10564400f0c2b30080cf5000f4ff3200ce009000cf
:105654002e0090000080400090407800c0c5b30048
:1056640080cf5000edff320062003700e0c2b3008b
:105674009e40780080cf500004003200be009000ad
:105684001e009000808f50000f0039001e00900013
