:020000040000fa
:080000000002040000000000f2
:020000040000fa
:04000800c40500002b
:020000040000fa
:04000c0006060000e4
:020000040000fa
:040010006606000080
:020000040000fa
:04001400e4050000ff
:020000040000fa
:0400180026060000b8
:020000040000fa
:04001c004606000094
:020000040000fa
:040020008606000050
:020000040000fa
:04002400b206000020
:020000040000fa
:04002800b20600001c
:020000040000fa
:04002c00b206000018
:020000040000fa
:04003000b206000014
:020000040000fa
:040034008e05000035
:020000040000fa
:04003800b20600000c
:020000040000fa
:04003c00b206000008
:020000040000fa
:04004000b206000004
:020000040000fa
:04004400b206000000
:020000040000fa
:04004800b2060000fc
:020000040000fa
:04004c00b2060000f8
:020000040000fa
:04005000b2060000f4
:020000040000fa
:04005400b2060000f0
:020000040000fa
:04005800b2060000ec
:020000040000fa
:04005c00b2060000e8
:020000040000fa
:04006000b2060000e4
:020000040000fa
:04006400b2060000e0
:020000040000fa
:04006800b2060000dc
:020000040000fa
:04006c003e0300004f
:020000040000fa
:04007000b2060000d4
:020000040000fa
:04007400b2060000d0
:020000040000fa
:04007800b2060000cc
:020000040000fa
:04007c00b2060000c8
:020000040000fa
:04008000b2060000c4
:020000040000fa
:04008400b2060000c0
:020000040000fa
:04008800b2060000bc
:020000040000fa
:04008c00b2060000b8
:020000040000fa
:04009000b2060000b4
:020000040000fa
:04009400b2060000b0
:020000040000fa
:04009800b2060000ac
:020000040000fa
:04009c00b2060000a8
:020000040000fa
:0400a000b2060000a4
:020000040000fa
:0400a400b2060000a0
:020000040000fa
:0400a800b20600009c
:020000040000fa
:0400ac00b206000098
:020000040000fa
:0400b000b206000094
:020000040000fa
:0400b400b206000090
:020000040000fa
:0400b800b20600008c
:020000040000fa
:0400bc00b206000088
:020000040000fa
:0400c000b206000084
:020000040000fa
:0400c400b206000080
:020000040000fa
:0400c800b20600007c
:020000040000fa
:0400cc00b206000078
:020000040000fa
:0400d000b206000074
:020000040000fa
:0400d400b206000070
:020000040000fa
:0400d800b20600006c
:020000040000fa
:0400dc00b206000068
:020000040000fa
:0400e000b206000064
:020000040000fa
:0400e400b206000060
:020000040000fa
:0400e800b20600005c
:020000040000fa
:0400ec00b206000058
:020000040000fa
:0400f000b206000054
:020000040000fa
:0400f400b206000050
:020000040000fa
:0400f800b20600004c
:020000040000fa
:0400fc00b206000048
:020000040000fa
:04010000b206000043
:020000040000fa
:04010400b20600003f
:020000040000fa
:04010800b20600003b
:020000040000fa
:04010c00b206000037
:020000040000fa
:04011000b206000033
:020000040000fa
:04011400b20600002f
:020000040000fa
:04011800b20600002b
:020000040000fa
:04011c00b206000027
:020000040000fa
:04012000b206000023
:020000040000fa
:04012400b20600001f
:020000040000fa
:04012800b20600001b
:020000040000fa
:04012c00b206000017
:020000040000fa
:04013000b206000013
:020000040000fa
:04013400b20600000f
:020000040000fa
:04013800b20600000b
:020000040000fa
:04013c00b206000007
:020000040000fa
:04014000b206000003
:020000040000fa
:04014400b2060000ff
:020000040000fa
:04014800b2060000fb
:020000040000fa
:04014c00b2060000f7
:020000040000fa
:04015000b2060000f3
:020000040000fa
:04015400b2060000ef
:020000040000fa
:04015800b2060000eb
:020000040000fa
:04015c00b2060000e7
:020000040000fa
:04016000b2060000e3
:020000040000fa
:04016400b2060000df
:020000040000fa
:04016800b2060000db
:020000040000fa
:04016c00b2060000d7
:020000040000fa
:04017000b2060000d3
:020000040000fa
:04017400b2060000cf
:020000040000fa
:04017800b2060000cb
:020000040000fa
:04017c00b2060000c7
:020000040000fa
:04018000b2060000c3
:020000040000fa
:04018400b2060000bf
:020000040000fa
:04018800b2060000bb
:020000040000fa
:04018c00b2060000b7
:020000040000fa
:04019000b2060000b3
:020000040000fa
:04019400b2060000af
:020000040000fa
:04019800b2060000ab
:020000040000fa
:04019c00b2060000a7
:020000040000fa
:0401a000b2060000a3
:020000040000fa
:0401a400b20600009f
:020000040000fa
:0401a800b20600009b
:020000040000fa
:0401ac00b206000097
:020000040000fa
:0401b000b206000093
:020000040000fa
:0401b400b20600008f
:020000040000fa
:0401b800b20600008b
:020000040000fa
:0401bc00b206000087
:020000040000fa
:0401c000b206000083
:020000040000fa
:0401c400b20600007f
:020000040000fa
:0401c800b20600007b
:020000040000fa
:0401cc00b206000077
:020000040000fa
:0401d000b206000073
:020000040000fa
:0401d400b20600006f
:020000040000fa
:0401d800b20600006b
:020000040000fa
:0401dc00b206000067
:020000040000fa
:0401e000b206000063
:020000040000fa
:0401e400b20600005f
:020000040000fa
:0401e800b20600005b
:020000040000fa
:0401ec00b206000057
:020000040000fa
:0401f000b206000053
:020000040000fa
:0401f400b20600004f
:020000040000fa
:0401f800b20600004b
:020000040000fa
:0401fc00b206000047
:020000040000fa
:04020000b206000042
:020000040000fa
:04020400b20600003e
:020000040000fa
:04020800b20600003a
:020000040000fa
:04020c00b206000036
:020000040000fa
:04021000b206000032
:020000040000fa
:04021400b20600002e
:020000040000fa
:04021800b20600002a
:020000040000fa
:04021c00b206000026
:020000040000fa
:04022000b206000022
:020000040000fa
:04022400b20600001e
:020000040000fa
:04022800b20600001a
:020000040000fa
:04022c00b206000016
:020000040000fa
:04023000b206000012
:020000040000fa
:04023400b20600000e
:020000040000fa
:04023800b20600000a
:020000040000fa
:04023c00b206000006
:020000040000fa
:04024000b206000002
:020000040000fa
:04024400b2060000fe
:020000040000fa
:04024800b2060000fa
:020000040000fa
:04024c00b2060000f6
:020000040000fa
:04025000b2060000f2
:020000040000fa
:04025400b2060000ee
:020000040000fa
:04025800b2060000ea
:020000040000fa
:04025c00b2060000e6
:020000040000fa
:04026000b2060000e2
:020000040000fa
:04026400b2060000de
:020000040000fa
:04026800b2060000da
:020000040000fa
:04026c00b2060000d6
:020000040000fa
:04027000b2060000d2
:020000040000fa
:04027400b2060000ce
:020000040000fa
:04027800b2060000ca
:020000040000fa
:04027c00b2060000c6
:020000040000fa
:04028000b2060000c2
:020000040000fa
:100400004fb721000eff27000e01880000000000fa
:10041000000020000000e000020032000001200087
:100420002002880014000700c50207000000e00059
:1004300003003a006054270001002000020037004a
:100440000000200001002000810f70000100320038
:100450000f000700000020000000e0000200320052
:100460000000020000000000f24302000000000053
:100470000040da000000fe00a01f20000000e000a5
:1004800002003200002020009001880000000600d9
:10049000a1028800800478000000eb001f003700f4
:1004a000e284440054a0b4009905ba00e2844400f8
:1004b00054a0b4009906ba00e284440054a0b400e9
:1004c0000006eb00476fde00fd07b200ae018800ba
:1004d000636ce10003003a000ad801000000eb0061
:1004e0000e003700606ce10008003a00004deb00a0
:1004f0000a05e800020039003420ec000af0a000f0
:100500008b05e900f9ff3e00040037006168e10057
:10051000010032000086eb000b00070019c7ba008b
:100520000e04e0001905ba0003003a000a00e000da
:10053000dbff3a0000000600fe07b200ae028800b2
:100540008a047800f5ff37000cd0a300e20f4d00bd
:100550001c00390089027800354dba000a05e80010
:10056000020039003420ec000af0a0008b05e900fd
:100570000f003200254dba000a05e80002003900dc
:100580003420ec000af0a0008b05e90008003200de
:100590000c00e0000600320015cdba000a05e800a4
:1005a000020039003420ec000af0a0008b05e900bd
:1005b0008984e80054a0b4000b00e000e2ff3a0098
:1005c000000006009902ba00055d78008b05e9007d
:1005d000f7ff3200c82ade00055d78008b05e900d0
:1005e000f3ff32000c00e000f1ff320019ddba0029
:1005f000eeff3700b876040000000000587d0400cc
:10060000000000001e77040000000000387704009e
:10061000000000006a7704000000000098770400e2
:1006200000000000c877040000000000d477040038
:1006300000000000fa77040000000000de770400ec
:1006400000000000627d0400000000005e780400ed
:10065000000000002a0a040000000000440a040010
:1006600000000000720a040000000000b016040040
:100670000000000000000400000000003600f80048
:10068000809fbe00829fbe00849fbe00869fbe00ea
:100690000000fa000228a900411080000008200094
:1006a000008060000000e0000800320008e2a900bd
:1006b0004c30ef0090828000200090008000eb0022
:1006c000010878005230ef000d0137006082800091
:1006d0008000eb00b200200003002000820f5000d9
:1006e000838f5800fc003e00000601000b0037001d
:1006f00039003700750037009c003700f3003700e1
:10070000c8003700d9003700f0003700db003700a1
:10071000f10037003400370050003700400421005a
:1007200020009000620060000000e000f3003a004a
:1007300040042100100090009082880040042100b5
:1007400010009000104078004ef0b70040042100e7
:10075000100090001000900080828800400421006a
:1007600010009000e60040004004210011009800b5
:100770004004210090009000e0b32100808f5000e1
:1007800003003a004004210081b3210011009800c9
:1007900040042100a00090000100a1002100980069
:1007a00040042100900090004004210010007800d7
:1007b000808f500004003a0040042100a000900007
:1007c0000110a000210098000602a80020002000cf
:1007d00060828800ca0037000622a800200020009e
:1007e00060828800c60037004110800000002800a9
:1007f000008060000000e00008003200400421009a
:10080000604090008040e800400421006140980072
:1008100040002000e2370700b9003700a0828000c6
:100820008000d100f00f20000080600010108800d0
:10083000a082800061006000004078000004e000b9
:1008400003003200b000200060828800ac00370056
:100850003000200060828800a9003700411080002d
:1008600000002800008060000000e0000800320066
:1008700040042100604090008040e80040042100d6
:100880006140980040002000c53707009c003700f9
:100890000622a800a08280004800de00e60060007a
:1008a000000f200001007000a0828800a08280005c
:1008b0000000a000a082880010c0b30056f0b7006e
:1008c00020002000608288008d00370056d0bf00d5
:1008d000e14f50000a003200808280001000780052
:1008e000a08288008082800020009000c082880062
:1008f00080828000204090005af0b700010037004d
:100900005670ef00a1828000f00f2000808f500011
:1009100009003600a08280004800de00e60060008a
:10092000000f20000100700010108800a0002000bf
:100930006082880072003700a0828000101088005a
:10094000a082800061006000004078000004e000a8
:1009500003003200500020006082880068003700e9
:100960003000200060828800650037004110800060
:1009700000002800008060000000e0000900320054
:1009800040042100604090008040e80040042100c5
:100990006140980009e2a90050002000803707005c
:1009a000570037005ad0bf008080fb008100e9006b
:1009b000cf08de00814078000040e9005af0b7001f
:1009c0000104e000100032008082800066004000d8
:1009d000808288004ed0bf000040e9004ef0b70092
:1009e0004ed0bf000004e00003003a0020002000c9
:1009f0006b370700420037000622a80020002000c5
:100a0000608288003e003700c082800090407800fd
:100a10008180fb00111088000000e800c08288007f
:100a2000370037004110800000002800008060007f
:100a30000000e00009003200400421006040900006
:100a40008040e80040042100614098004000200000
:100a50005337070009e2a900290037000662a80001
:100a60008000200060828800250037008000200080
:100a7000608288000662a80021003700c0828000e2
:100a80000110800081407800014878000000e800f3
:100a9000c08288005ad0bf000040e9005af0b70079
:100aa0005ad0bf000004e0000400320006a2a900f2
:100ab00060002000608288000200370006a2a800c3
:100ac000263707000682a8000d003700200020000e
:100ad000333707000a0037004004210060409000cf
:100ae0008040e80040042100614098006000200040
:100af0002b37070000000000010037000000000055
:100b00000080fa004f03be004f02be004f01be003e
:100b10004f00be003600f900004006003600f80025
:100b2000809fbe00829fbe00849fbe00869fbe0045
:100b30000000fa00908380000000e0000200320014
:100b4000908380000000010090b6210010407800e2
:100b50008040e80090b621000148780080b621006e
:100b600011c0b300014878000068a9000080fa00b5
:100b70004f03be004f02be004f01be004f00be003b
:100b80003600f900004006003600f800809fbe00e5
:100b9000829fbe00849fbe00869fbe000000fa00b8
:100ba000c028a9000000eb00da3b07000080fa0033
:100bb0004f03be004f02be004f01be004f00be00fb
:100bc0003600f900004006003600f800809fbe00a5
:100bd000829fbe00849fbe00869fbe000000fa0078
:100be000d13b0700c048a90010002000c93b070006
:100bf0000080fa004f03be004f02be004f01be004e
:100c00004f00be003600f900004006003600f80034
:100c1000809fbe00829fbe00849fbe00869fbe0054
:100c20000000fa00c068a90020002000b93b0700be
:100c30000080fa004f03be004f02be004f01be000d
:100c40004f00be003600f900004006003600f800f4
:100c5000809fbe00829fbe00849fbe00869fbe0014
:100c60000000fa00c088a90030002000a93b07005e
:100c70000080fa004f03be004f02be004f01be00cd
:100c80004f00be003600f900004006003600f800b4
:100c9000809fbe00829fbe00849fbe00869fbe00d4
:100ca0000000fa00c0a8a90040002000993b0700fe
:100cb0000080fa004f03be004f02be004f01be008d
:100cc0004f00be003600f900004006003600f80074
:100cd000809fbe00829fbe00849fbe00869fbe0094
:100ce0000000fa00c608a90070002000893b070038
:100cf0000080fa004f03be004f02be004f01be004d
:100d00004f00be003600f900004006003600f80033
:100d1000809fbe00829fbe00849fbe00869fbe0053
:100d20000000fa00214680000002200000806000e0
:100d30000000e00003003200c4a8a90090002000d9
:100d4000743b070020468000700060000000e00057
:100d500003003200c488a900a00020006d3b0700fa
:100d6000ffff37000040da000000fe000a00fa0032
:100d700011002000b1bf9f00c0bf9f006a805700d4
:100d8000ae0807004fb897000080fa000000060088
:100d90000a00fa00e20f500034003e0080db8000c1
:100da000e10f500003003200e20f500011003a0042
:100db0000c003700032220000300e00001003a008d
:100dc0000040da002002e200020035002822ef0095
:100dd00021e2a8002342ab000d003a002342a80004
:100de0000b003700032320000300e00001003a005d
:100df0000040da003002e200020035003822ef0045
:100e000031e2a8003342ab0001003a003342a800af
:100e1000820178000b0037003102fb00e10f500027
:100e200004003a002322ab00feff3a0024118800a0
:100e3000030037003322ab00feff3a00a411880004
:100e40008301e9000300e000f3ff3a00e10f5000e6
:100e500003003a002302ab00feff32000b00370014
:100e60003302ab00feff32000800370033002000e1
:100e7000b3bf9f00c0bf9f00d1bf9f00e2bf9f00d4
:100e80006a8057006f0807006fb99700020078006a
:100e90000080fa00000006000a00fa00510020005d
:100ea000b1bf9f00c0bf9f006a805700670807005e
:100eb0005fb897000080fa0000000600889fbe001f
:100ec0008004780090db80000000e00004003a001d
:100ed0000e0007000084eb000000e0000800350071
:100ee00098db80000900e0000500320009004400a2
:100ef000060007000000e00001003d000084eb0058
:100f0000080078004f04be00000006008000780052
:100f10000100e00003003a000000200090db8800a0
:100f2000000005000080eb0002002000828f5000ce
:100f300002003e0091db88000000eb00000006008c
:100f400000000500140020009c003700f4ff2f0073
:100f50009a0037000001be003f0007000470a700a0
:100f600003f0a1006509b100160032000d00350044
:100f70006828e10006003500f0ff2f00f1ff270090
:100f80000300e00013003b00010028000000050002
:100f900000004000818048008502e900fcff3a0023
:100fa00008003700f88f420002003c008000eb0090
:100fb000000005008100d1000080d3008502e80018
:100fc000fcff3a000300e00002003b00600010005c
:100fd000e0801800000006000001be001e000700af
:100fe0000470a70003f0a10003f8a30013003a0067
:100ff0006509b10010003200090035006928e100e0
:10100000020035000100280000000500000040003b
:10101000818048008502e900fcff3a0000000600dc
:10102000f88f4200050035008100d1000080d30018
:101030008502e800fcff3a00000006008000eb009b
:10104000000005004f89de0082017800760037003d
:101050006011b80084003700c70ade00f107b20053
:10106000f50fb20008003200e1cf4200020032006a
:101070000170a00024000500810f70000100320003
:101080000408050044000500810f700002003a00ca
:10109000140005008502e9000000400081c04800fe
:1010a000fcff3b000170a00024000500889fbe00eb
:1010b0008a9fbe008c1f7800c0000700c700330065
:1010c00003866c006450e100240032006420e100db
:1010d000270032006150e100220032006120e1006f
:1010e000210032008b854200eb07b1000134b800cb
:1010f000003ab8000804420089844a00013ab80066
:101100000030b8008880400009014a000400330024
:101110000000400081804800020149008b05e90081
:10112000c909dd00830170000100320013002000b6
:10113000c814de004814dd004709de001200b200ca
:10114000c808de00088470007600070001f0a100e6
:101150000cf0a70001f0a000a90037006120e10019
:10116000ab0032000801be000200be00f7ff3700ee
:101170006150e100fcff3a00a50037006022b80092
:10118000060220000000d0008180d2000482d2003c
:101190008582d2000000a0000202520083825a0021
:1011a000030031000202420083824a000000a100d5
:1011b0000603e900f3ff3a0000000600889fbe0026
:1011c0008a9fbe00841f78007c0007004f007800d3
:1011d00011003300f0ff2f00838f6c0006003b00ee
:1011e000040565000a00a7000800370009f0a60002
:1011f0001000200008003700820f5400838f5c002d
:10120000030039001000200001003e000000200013
:1012100009f0a7000000ea004f05be004f04be0021
:101220000000e00000000600881f7800030478003a
:101230000300e00007003d0060001000e08018009f
:1012400060011900e081190002003b0001f02d004f
:10125000030037000400070008f0a70001f0a00019
:101260004f04780000000600889fbe008a9fbe00e1
:1012700000827000040271000482710026003200b6
:101280000004be000200be006011b8006b0920001f
:10129000950220000182cf000a0039000541b1000b
:1012a0000082cf00070039000541b1000982cf005c
:1012b000040039000541b1000882cf000100390067
:1012c0000541b10005425200120032000a003b0005
:1012d00082817100610164008100d1000080d3002f
:1012e0008984d3000884d3008b05e8000442e80019
:1012f000f7ff3a00070037000804440089844c00d7
:1013000000004800818048008b05e9000442e900a4
:10131000f9ff3a00030007004f05be004f04be006e
:101320000000060081002000618055000b003d0098
:101330000b00200061fe2f000100e1001d003400c1
:1013400082817100610164008904d1000884d300a6
:101350000000e800faff3a0071002000610064001c
:1013600003007000020060000900320061044400c4
:10137000e0844c000988a500050032008b05e800d8
:101380006808e10002003a008904d1000884d30013
:10139000f20f20000258e10005003d00c75ddd00ae
:1013a000f907b20089807500080078000000060087
:1013b0000bf827008b007800000005000004be0039
:1013c00025ff07000003be000405be000200be00aa
:1013d00021ff0700844f7500000006000200be00d8
:1013e0006450e100050036006420e1000200360090
:1013f0000968a30001003a000800be000160a000d7
:101400004f0678004f05be004f04be0000000600e6
:10141000f0ff2f00f1ff2700f9ff3700800178006f
:1014200002003700b15978000201e9000200e00033
:10143000fcff3a000000060080017800020037003f
:10144000815978000201e9000200e000fcff3a0047
:1014500000000600889fbe00800478000203be00e2
:10146000010478006149b800898fd2008381d200dd
:10147000080278000600be00f60607000880440057
:101480004f04be0000000600881f780002047800a8
:1014900008017800e1ff0700080040004f047800d1
:1014a000000006000000fa00881f780000047800a1
:1014b0006a825700bfb9970008017800a1a22000f6
:1014c00040a42000160007000000e00002003500e4
:1014d00000044400004ceb004f0478000080fa0048
:1014e00000000600889fbe00000478000203be00d2
:1014f0008104780008027800890178001200200039
:101500000600be0088040700890f50000100320069
:101510000004eb00080078004f04be000000060045
:101520006800fa00889fbe008a9fbe008004780091
:1015300001047800820578000305780084007800b3
:1015400000f92f000f00400075040700d98f9f009d
:10155000fb8f9f000000eb00a09f9f00e88f9f0083
:101560009a84fb000904fb008904ea00cf4cde00ea
:1015700050022000800f54000d003200e18f540013
:101580000b003a00090178008a0078007f889700f4
:10159000df89970003000100f08f9f000000e0004a
:1015a000950032002f9897000000e800a09f9f0050
:1015b0000905450050022000800f5400040032004d
:1015c0000800e000e6ff3a002f9897008b003700f4
:1015d0000000eb00809f9f00f0979f00e0979f0026
:1015e000d0979f00c0979f00b0979f0007003700db
:1015f000a1b121000100500000004000e1b0210035
:10160000808040004f98970011007000c09f9f009d
:101610000a04780008057800ba4478008900fb00c5
:10162000a0b121002e0307000000e000f0ff3a0007
:10163000a1c2b30081cf54000e003a008f889700fa
:101640000180e900808f9f0010007800b09f9f000c
:101650000000e00005003d000000ea00b09f9f0090
:101660004f9897000020a000c09f9f000804e8004a
:1016700010003700b09f9f00880078000000eb004a
:1016800005003700f3ff2700830f500002003200ef
:10169000ea00b900000041000104780088007800e9
:1016a0003101fb000203b100e90f5100f5ff3600e4
:1016b000b09f9f00e0c2b300984f100002003200bc
:1016c0000080eb0019003700a0c2b300d84f100013
:1016d00007003a008f8897000180e900808f9f0003
:1016e00010007800909f9f000804e8001000370069
:1016f0000000eb00909f9f008800780005003700f5
:10170000f3ff2700830f500002003200ea00b90007
:101710000000410001047800880078003101fb00de
:101720000203b100e90f5100f5ff3600909f9f00c2
:10173000984478008900fb0060b02100e8020700af
:101740000000e000020032000804e8000100370059
:101750008044eb00a97f9f0080c6b30080cf540077
:1017600006003a0098cf140010003a00664050007e
:10177000a07f9f000804e8000c003700c0c6b3003b
:1017800080cf540009003a0098cf140007003a00b7
:1017900067404000d84f100002003a006e405000f1
:1017a0000100370010c7b300a07f9f001801fb00a5
:1017b000c3fb2f008f81410001f92f008f80400073
:1017c00020f92f000f004000150007000000e00086
:1017d00009003a00c1fb2f008f80400020f92f0044
:1017e0000f004000f40207000000e0000200350096
:1017f0000805e8005aff37000080eb004f05be00e7
:101800004f04be000080fa000000060003027800ca
:10181000820178000101780021a7200040ff3700f5
:10182000889fbe008a1f78000004780082447800f8
:101830000305780070c4b30080cf54000a003c0058
:1018400000c0e90080cf54000f003d0050c2b3003b
:1018500080cf54003b0032007c40400080cf5400d9
:101860003b003a000800370010c6b30080cf540098
:101870000500320036003500b0c9b30000c0440096
:10188000e24f500032003e0008699000c0c4b3002f
:10189000804f510008003a001101780068005100a3
:1018a000800878009000900020019000b001900026
:1018b0001000780006003700110178006400510024
:1018c000800878009000900010007800dd06070086
:1018d000009cbe000294be00b80090002808900052
:1018e0000100e00003003d0080004500d2c2b300cb
:1018f0000a003700b81090000118a300030032005e
:1019000080004500b2c2b300040037000108a30004
:10191000050032008000450002c2b3008248780012
:101920000000e800200c9800280890000005450001
:101930007a0498008900fb00080078001000070076
:101940000b0037002808900000054500050037000f
:1019500028089000000545000904e00001003a0055
:1019600059c2b300094d78000000e800200c98002f
:101970000000eb004f0578004f04be000000060099
:101980002f04b000889fbe008a9fbe008c9fbe00bf
:101990008e1f78000007780081f79f001e047800f2
:1019a0009e0490002e059000be0590000e10900041
:1019b0000000e00002003d006000200000179800d9
:1019c0008e00780020fb2f000f004000500207001f
:1019d000e20f50000a003a0030002000400f98004b
:1019e000b1c9b3000ff0970081404000a0a62100cc
:1019f000e1cf50000d003e0060a621000b00370033
:101a00000000e0000f00340030002000400f98007c
:101a1000b1c9b3000ff197008140410020a7210018
:101a2000e1cf500001003e00e0a62100fe00900042
:101a3000b0487800b0687800104078009040980076
:101a4000f70037000000e00005003a0022fb2f00fd
:101a50000f014100001978008001eb00eb00370016
:101a60006022b8006033b8000800be000a01be0062
:101a7000bc0507000000e00001003d000bf0a200e3
:101a8000705927009f9897000088b900026a2800c3
:101a90001300200017060700640650009c9f9f005b
:101aa00015003b0063061600c0ff2f00000666000d
:101ab0008c01ea00939f9f006da721000800be00e3
:101ac0000a01be00090037000c08a300050032001f
:101ad0001d0278009d0290002d039000bd03900030
:101ae000a70607000c86d100e88646000c00e0003f
:101af000f5ff3c001a0037000c00e0001a0032002d
:101b0000c0ff2f00000666009c9f9f006da721006c
:101b10006000b8000200200003ff23000900370026
:101b20000c08a300050032001d0278009d02900001
:101b30002d039000bd039000910607000c86d10094
:101b4000e88646000c00e000f5ff3c000002be0005
:101b50000203be000800be000a01be008b0507009c
:101b60000004be000205be008e10900060c6b300e7
:101b70000ff29700804f52000400320060002000f6
:101b800062c4b300824f520002003a009f9a97004d
:101b90006a80420081004000f1b79f000103780095
:101ba000f30f53000200340037012000f7b79f0005
:101bb00000c3b300c0779f0056fb2f000f03430004
:101bc0000e007800a0b79f00060778003d003700a0
:101bd0000800be000a01be00390607000006be006c
:101be0007fb1970068015100f2b79f004240a90001
:101bf0000c0034005e0607000002be000203be00b7
:101c00000800be000a01be00d30607006022b8002b
:101c100046782d0077192400590607000004be00fd
:101c20000205be00e80047008e0020000802be004a
:101c30000a03be00b4b79f00c5b79f00d6b79f0088
:101c4000e7b79f000c01be00010478000c003700cc
:101c5000a400200005002000c0fd2f000f00400060
:101c60008a0107006fa89700ffa897000fb197009f
:101c70009fb1970005c3b300056441000001be0099
:101c8000e00f5100e08f5900030034000e07e90017
:101c9000e10f4700eeff3a00880078003fb497005c
:101ca000cfb497005fb59700efb5970002003700fb
:101cb00000c3b300806078000e07e900fcff3b0022
:101cc000688740007fb397000600e00007003400fb
:101cd0006022b8006033b8000800be000a01be00f0
:101ce000250507000000e000b9ff3c000e03780066
:101cf0002fb7970051fb2f008f8040000103530046
:101d00009f9b970067804300909f9f0002003700d1
:101d10000603e9000000e900010178008200780074
:101d200003c3b300b1cf1100f9ff3200909f9f00b1
:101d30008e11900061c6b3000ff29700814f5200e0
:101d40000300320061c4b300814f520002003a0028
:101d50000000e8000a0037001000200051c6b30060
:101d60008ff2970081cf52000500320005407800c5
:101d700050c4b2000080fb000000e9004f00de000c
:101d800083014000868f51000100340086017800f5
:101d90000300e0001d00350000c3b300868f510032
:101da00006003d00030241006940400041c3b3000a
:101db00094cf100001003c00694050008300e9000e
:101dc0008100410001003700840178000302e9002e
:101dd00001037800a142780080cf5200faff320060
:101de00091c3b300814f500001003a00054be80059
:101df0000400e00005003d000201e9008301e80065
:101e00001f9b97000603e800969f9f008ff39700a3
:101e10008700fb001f9a97000e007800060007005d
:101e20004f0778004f06be004f05be004f04be00ae
:101e30002f04b10000000600f0874700889fbe0015
:101e40008a9fbe008c9fbe008e1f78000004780021
:101e5000814478000205be00040678000b00e00013
:101e600002003c001b002000aab6210060c6b3009f
:101e700080cf54000e00320060c4b30080cf540005
:101e80000b00320070c6b30080cf54000300320054
:101e900070c4b30080cf540085003a00e40f4600c0
:101ea0008300350008109000800f560080003d0030
:101eb0000c06e80060c6b30080cf5400100032006a
:101ec00060c4b30080cf54000d0032003810900081
:101ed0000038a30004003a0008109000808f5500dd
:101ee00001003d000b149800081090000c005000f9
:101ef0000014980002003b000000eb000014980062
:101f0000c8089000780090000c00e00028003c0019
:101f10000100400002c3b300024878008100e800dd
:101f2000410c9800081090000000e00003003c0005
:101f3000381090000038a3000600320078009000ae
:101f400001004000e2c2b300024878008100e800ce
:101f5000410c9800081090008c00ea00810f50009e
:101f600001003d000006ea008c00ea00510c9800d8
:101f7000000646000c1498008b0f56000100340038
:101f80000b0678006c0c9800f80090004808900050
:101f9000008040000c0178008a0078001ffd0700d7
:101fa000081090000c0650007c0c9800940037003c
:101fb0008c8f550019003d00010040000b01780096
:101fc0008a00780015fd0700480890000080450051
:101fd000400c98008b0556005b0c98008810900010
:101fe0000100e00003003c00b81090000138a3009d
:101ff00007003200f800900000804000e1c2b3000a
:1020000001487800680890000000e800600c980023
:1020100008109000700c9800790037000100400013
:102020000c0178008a007800fcfc0700480890004a
:1020300000004600400c98008c85550088109000e8
:102040000100e00003003c00b81090000138a3003c
:1020500006003200f800900080804000e2c2b30029
:10206000824878000000e800400c980008109000ba
:10207000808f55000100340080057800f800900042
:1020800048089000008040008c0045000b0178005b
:10209000e2fc0700480890000b004000400c98004c
:1020a000081090008b0550005b0c9800540037001e
:1020b00048089000f8009000808040009a4878001e
:1020c0000000e800400c9800881090000100e0003b
:1020d00003003c00b81090000138a3000600320055
:1020e000f800900080804000e2c2b300824878008f
:1020f0000000e800400c9800081090000000e0008c
:10210000100034008b05e900808f55000100340079
:1021100080057800f800900048089000008040009a
:102120008a00e8000b017800bcfc0700480890001a
:102130000b004000400c9800081090008b055000e8
:102140005b0c9800f8009000480890000080400068
:10215000095878000007e8000c00e0000400350092
:10216000b1c2b300014878008e0478000400370043
:10217000d1c2b300014878008e0478000c06ea0052
:102180007d8557008006eb0009003700a200200083
:102190008c00780072805700310007007fb09700f4
:1021a0008fb89700016d7800000678008d06e80072
:1021b0000c00e000f5ff3c000d00e00009003a00d3
:1021c0008e04780000c3b300805c780005003700ff
:1021d0008d06e900fc8057000d80400001c3b3006c
:1021e00090dc40000d00e000f9ff3c00f80090009a
:1021f000480890000080400080845400690c9800da
:102200003810900074006000f00f50000e003a008b
:10221000c80890002808900000804000d80890006e
:1022200001004000e808900001004000f80890001c
:1022300001004000a8109000810f500002003d00f6
:1022400000805000300c98004f0778004f06be0009
:102250004f05be004f04be000f01b1000000060094
:102260008002780001037800110009000203d80001
:1022700080017800830a78008299b90082005300b7
:10228000910298000500780000000600881f780081
:102290008a9fbe008c9fbe00000478000205be002d
:1022a0000406be000401be000a00be0011040700bf
:1022b000008cbe000c01be0029050700000555007a
:1022c00081855d002a0498003b049800080078008e
:1022d0004f06be004f05be004f0478000000060008
:1022e000020037000304e00006003200000178001d
:1022f00002007800b041780081cf5100f9ff3a0028
:10230000010037000001eb00020078000000060029
:10231000889fbe0000047800e68440001900d000c9
:102320004500de00f27f2000820f500010003a00ce
:10233000000ceb00990478006f81640020002000fd
:102340001b003a00210190000200e00018003a0052
:10235000110190000200e00015003a00100020007a
:102360001100e000120032002000200010003700b1
:102370000000e00004003a0001007800920107002c
:102380000000e00008003c00f20028001901610094
:1023900001fe2300810c710021c02f00010c4000c0
:1023a0000080eb0002003700000ceb000000eb00a7
:1023b0004f04be00000006000400fa00889fbe0023
:1023c0008a9fbe008c1f7800000478000106780008
:1023d000a8149000280890008084540038089000c9
:1023e000808454004808900080845400580890006d
:1023f000808454006808900080845400780890001d
:10240000808454000002220090bf9f00000323003c
:10241000a0bf9f00381090000028a30015003a00cc
:102420000900e00013003400090578008a057800ef
:10243000e20f5500010036002b002000c80190007b
:102440000b017800ee805700680090000300010047
:10245000600498000000e000aa003200181090000c
:102460000b004000101498000b0555004240a900d5
:10247000eeff3c00280990000200e0000c00340050
:10248000c80190008c0078006800900003000100f3
:10249000600498008080eb000000e0009a003200a9
:1024a00098109000280890000080400010149800b8
:1024b000380d90000a00e000110034008a05780011
:1024c000e20f5500010036002b002000c8019000eb
:1024d0000b017800ec8057006800900003000100b9
:1024e000600498000000e0008600320018109000a0
:1024f0000b004000101498000b055500edff37004d
:1025000008699000c808900050c6b300804f510081
:1025100008003a000100e000150034005802900065
:1025200008099000980990006800900004000100dc
:10253000070037000100e0000d003400c8019000e2
:1025400001017800f800900068009000030001008d
:10255000600498008080eb000000e0006a00320018
:1025600098109000480890000080400010149800d7
:10257000580d90000a00e000110034008a05780030
:10258000e20f5500010036002b002000c80190002a
:102590000b017800ec8057006800900003000100f8
:1025a000600498000000e00056003200181090000f
:1025b0000b004000101498000b055500edff37008c
:1025c000086990006808900051c6b300814f51001f
:1025d0000d003a000000e0001c003400780190007b
:1025e000c8089000010141006111b800828fd2003b
:1025f0008381d2005802900080007800680090002b
:1026000004000100090037000000e0000f00340062
:1026100078019000c808900081004100c801900036
:102620000001780068009000030001006004980039
:102630008080eb000000e000330032009810900032
:10264000680890000080400010149800780d9000f9
:102650000a00e000110034008a057800e20f5500fe
:10266000010036002b002000c80190000b0178000b
:10267000ec8057006800900003000100600498009f
:102680000000e0001f003200181090000b00400016
:10269000101498000b055500edff3700381090001e
:1026a0008000eb000028a300170032000900e000c2
:1026b0001500340009057800e28f5400010036004f
:1026c0002a002000c80190000a017800ee8057001f
:1026d0006800900003000100600498000000e00022
:1026e00008003200181090000a00400010149800f2
:1026f0008a8454004240a900eeff3c008000eb00b9
:10270000010037008080eb00010078004f06780060
:102710004f05be004f04be000080fa000000060016
:102720000108780000000600e6874700889fbe0089
:102730008a9fbe008c9fbe008e1f780082bf9f00c4
:10274000040478008299b900f2b79f000200e0000b
:10275000590032000fb997000200e0005700320024
:102760000006be007fb79700c80090006800900088
:10277000808f50000400390008007800de00070058
:102780000000e0003b003500004020001800600021
:102790000a0032008e017800a20020000c00be006a
:1027a000550207000005be000080750007003200da
:1027b0008c0455008904e800050037008e04780079
:1027c0000a0020000b002000010037008e04780072
:1027d000480190006800900002005000890f5000ee
:1027e00003003100800478000a0020000b00200064
:1027f0006111b800828fd2008381d2000902780073
:102800000c00be00130207000907570048009000a3
:1028100009004000400498000a8575000400320059
:10282000080078002c0007000000e00011003a00ca
:102830000e00e0000f0032006148b800808fd20027
:102840008180d2000000780000f0a1000c01d000cf
:102850008001d000030641004220a80081864e007e
:102860004200a9004220ae004200a8000c86d3001e
:10287000bdff370000802000180060000200320019
:10288000080078001400070000c020001800600055
:102890000200320048009000600498007fb1970069
:1028a0000e0751000fb99700110009000287d800e8
:1028b00080017800010037008001eb000300780000
:1028c0004f0778004f06be004f05be004f04be0004
:1028d0006f00b10000000600889fbe000004780071
:1028e0000800e00010003a008004eb0009047800c2
:1028f0008800d00060a52100008040001000780012
:102900000000e00004003200f3ff07000000e000d8
:1029100001003d008084eb000804e800e80f54004b
:10292000f3ff3a0025003700000022001800600085
:102930008004eb0021003200a80490000f00370053
:1029400009015100384090000000fb008900780028
:102950000ff907000000e00007003c00280090008d
:102960004004980060049800500c98001890a00053
:102970008084eb00110037008084440048019000ff
:10298000828f5400eeff3900280090004004980028
:102990009800780002c020000281600001003a0027
:1029a0003800900001e8a3000200320060049800a3
:1029b00001003700500c98008004eb0009007800fb
:1029c0004f04be0000000600e60040001101780040
:1029d00005002800850261006f016100820878000f
:1029e000020032001200200011003700a001900008
:1029f000120020000300e0000d003a00900190005a
:102a00000300e0000a003a001000e00008003a006d
:102a10003600370064034000960878008001780093
:102a2000530b780090097800040878007001510079
:102a3000110278000400e000f6ff320013003700b6
:102a400064024000140378004f33de0083814100ac
:102a50008308730080017800d3037800cf3bde0049
:102a60001403780006034300068a730013027800fb
:102a700004024200100378004f33de008609720022
:102a800090017800038841000201e900910178007b
:102a9000ef8f5100eaff3600100037008001780008
:102aa000530378004f33dd001002d1000408730097
:102ab0006402400094037800cf3bdd001303d10093
:102ac00086897300110378004f33dd009401d10033
:102ad000030a73009108d1000201e8009101780017
:102ae000ff8f5100edff3e00ef886100918872007a
:102af0000200780000000600889fbe008a1f780050
:102b000000047800c8009000680190000000eb000d
:102b1000828f50003c003900180078002200290004
:102b200002016000e20f5100070032000120200086
:102b30000000e0000100350001202400008c70003e
:102b40000080eb0030003700020026000200600029
:102b5000820f500009003a0038009000808f50002a
:102b600006003900080078005bff0700800078004d
:102b70000080eb000100e00023003a001805780017
:102b800000c020000000650018003a00a804900072
:102b90006002200008004000808f540013003a00bb
:102ba00000202000f1000700200498000000e00051
:102bb00005003a0029049800490498008904e800b7
:102bc00039049800080037000a60a0000a0c780059
:102bd00040049800012020008080400031049800cb
:102be000400c9800500c98000c0007002800900042
:102bf00050049800380090006004980000002600ff
:102c0000180c70000000eb004f0578004f04be0068
:102c100000000600006b210062003700881f78006a
:102c2000c8b621001804e00003003a00f9ff0700cd
:102c300020c0b300004c78004f047800000006006c
:102c4000889fbe00000478000800780022ff07007b
:102c500080047800000420001800600002003200a8
:102c6000280090005c0007000000eb0020049800a2
:102c7000384090000004e000050035000000fb0033
:102c80003af807000000e000010032008084eb0009
:102c9000181090000000e000080032007ef80700e5
:102ca0000000e000010032008084eb00181090006a
:102cb000490007000000eb001014980000082000f5
:102cc00018006000150032000001eb006000b80041
:102cd0000202d00063a5210003024200940f1400f9
:102ce00005003a000000400081804800008041005b
:102cf0000008eb000600370061004000e08048005b
:102d00000201e800e80f5000e08f5800f0ff3a00a1
:102d100008007800300007000e003700000c780033
:102d200000c0eb0030449800600220000800400022
:102d3000200498004004980050049800400c98002b
:102d400060049800500c98007004980076004400cd
:102d5000000c9800090078004f04be000000060037
:102d6000881f78000004eb006140b800e2ff2f00ec
:102d7000f3ff2f007a02070042a6210080004100e5
:102d8000110078000000e00001003200acff0700f5
:102d90000804e800e80f5400f3ff3a004f047800fd
:102da00000000600010020000100e00009003200e0
:102db000010080000100e000060032008100e9000f
:102dc000010088008100d000020080008280400065
:102dd00080087800000006000000e0002f003200ac
:102de000c0017800e38f51002c0036000308a300d7
:102df0002a003a0031db80000100e00002003200ce
:102e0000810f5000040031001100980030db880071
:102e10001600370082007800110190000200e000e7
:102e200002003200800f5100faff390011027800d1
:102e300084824000850f500018003900808f5200b6
:102e400003003a00830842000100780007003700c1
:102e50000200e0000300320083014000830f5100b4
:102e60000e00390012009800900098009000900029
:102e70000100e0000900320010014000828f500084
:102e800006003a0042b621000009eb00100178006c
:102e90001108410091009000110098000000060008
:102ea000889fbe000004780021db80000100e00064
:102eb00002003200010078000d00370031db800095
:102ec00060b6210004003700910f54002500360041
:102ed0000180e800910090000100e000faff3a0054
:102ee00010003700920f54001e0036000280e800e8
:102ef000100178000200e000faff3a0011017800aa
:102f000031db800060b6210004003700910f5400cf
:102f1000140036000180e80091009000828f50007c
:102f2000faff3a0079db8000888f540001003100fd
:102f30008804780009007800360007000000e000ef
:102f400004003a00888f5400050032008904d10043
:102f5000f5ff3700091878009fff0700d2ff370000
:102f60000000eb004f04be0000000600881f780040
:102f7000630440000800a1008000eb00800f5400b3
:102f800021003600e30f540001003e0048002000fd
:102f900008007800c2ff07008000eb000000e0009e
:102fa000190032009000780091017800648151008e
:102fb000880f5100030031001101900002087800d1
:102fc0000700370008814000020878009101900056
:102fd0001301980010017800110914008808780086
:102fe000100178000000eb000200e0000400320055
:102ff000920190000300e000010032000280e8002e
:1030000020db88008180e800010078004f04780010
:1030100000000600800078000000eb000100e000e6
:103020000500340001007800a4f70700e10f40001c
:1030300001003a000000eb000000060000c0da00ca
:103040000000060000c0da000000060000c0da0040
:10305000000006003400f8003200f8000203be0051
:10306000820270008502720002f0a6008301e8006f
:10307000a301880000f0a6008100e800910188000b
:103080001500b2000c003200104978000402e9007b
:103090001500320061014100020039003420ec00cb
:1030a0000200280061004000f7ff39003220ec00e8
:1030b00000002800f4ff3700100978000482e900be
:1030c0000900320062014100020039003420ec00a6
:1030d0000200280062004000f7ff39003220ec00b7
:1030e00000002800f4ff37003200f9003400f90036
:1030f0000601be00000006000300e00007003200e9
:103100009501800001d0fe001042780005d0fe003d
:103110000402fb00820f5200110032008301e9001b
:103120009501800001d0fe001042780005d0fe001d
:103130000404e00008003200000278001000b00033
:1031400000026a004260af0000f0a0000482d200da
:103150000180b000e8ff37000000200001002000df
:10316000000006008f1fd100010207008f87e900d1
:103170000000e00000000600809feb00fc0107005b
:103180008f87e9000000e000000006002800fa0038
:10319000889fbe008a9fbe008c9fbe0003866b0086
:1031a0008f0007006400e100440032006408e10081
:1031b0004a0032006100e100460032006108e1008f
:1031c00049003200ec0647006000b8003d02be0036
:1031d0003d03be00f48657006011b8003d04be00f8
:1031e0003d05be007d0320000b0037000000a0005d
:1031f0008d06e900130032000402420085824a0075
:1032000006034b0087834b0000004000818048008c
:1032100002014900838149000802520089825a0054
:103220000a035b008b835b00f0ff3b000802420057
:1032300089824a000a034b008b834b008d06e9000c
:10324000edff3a008482720086827200f707b200b6
:103250008782720001003200150020001e049000d9
:103260003e0b900006035400e63fb0000368a30045
:10327000070032000000a7000500a0008301d10074
:103280000281d3008180d3000080d3000603e800d0
:103290008301d1000281d3008180d3000080d3005c
:1032a0000002eb000482d2002100070003f0a1001d
:1032b0000cf0a70003f0a0005d0037006402470097
:1032c0006408e100570032003400be003401be0043
:1032d000f6ff37006108e100520032006011b800cb
:1032e0006000b800f1ff370003ff27000200200054
:1032f000fbff3700839f68000100e00002003d00f3
:1033000060001000e08018000300e00002003d00b3
:1033100060011100e081190098f707004f00e000fc
:1033200002003b0060001000e08018000000060072
:103330001800200057002000080453000d003d0035
:103340000600200097fc2f000740e1001e0034001b
:1033500084827200610260008301d1000281d30087
:103360008180d3000080d3000804e800f8ff3a0011
:103370004700200061046000050474000404640038
:103380000d00320061004000e0804800600149000b
:10339000e081490003b8a500070032000603e800f9
:1033a0006538e10004003a008301d1000281d300b6
:1033b0008180d3000080d300f87f20000830e10036
:1033c00003003500080378006000b8006011b80001
:1033d0004433dd00f300b2008301730000000600f7
:1033e000680447000294be000094be00fc0447003d
:1033f0008694be008494be0009007800a6010700f0
:1034000008007800a401070099007800814f70003f
:103410000b003b000800be007e0107004f00b1001a
:1034200003003700f3ff2700f2ff2f006110b900ff
:103430004f06be004f05be004f04be000080fa00dc
:10344000000006008103780003f707000001be00ba
:103450006000b8000478a30013003a006220e10085
:1034600015003e000d0039008301d1000281d30018
:103470008180d3008301d1000281d3008180d300f9
:103480008301d1000281d3008180d3000538b000d0
:10349000c42add00f300b2008381720007f0a700a8
:1034a00003f0a00000000600f3ff2700f2ff2f004a
:1034b0006110b900fbff370003ff2700f7ff37005b
:1034c0001400fa00889fbe008a9fbe008c9fbe0039
:1034d0000004be000205be00680047000a90be005e
:1034e0000890be006c0107000070a7000bf0a1005f
:1034f000304320009e02900080825200b0fe2f00d8
:103500000028e10011003d00b0fc2f000028e10080
:10351000150034001e0990008e0890007e00900077
:103520000501b0000201d1008180d3000080d300ea
:103530008502e800fbff3a000b00e000bcff3b0007
:1035400060001000e0801800b9ff3700f0ff2f0086
:10355000f1ff27000b00e000b5ff3b000100280051
:1035600000002000b2ff37006000b800b0ff370055
:103570004f89de00820178006e01370000000000f4
:103580002800fa00889fbe008a9fbe008c9fbe0064
:1035900003866b0092ff07000028a30064003a0036
:1035a0000128a30068003a000008a30062003a0066
:1035b0000108a30066003a001e009000be089000bb
:1035c00081064000ed3fb100f4805700ee0190000d
:1035d000111ab8008e099000311bb8009e099000a6
:1035e000311cb800511db800f48557004600070093
:1035f000fe0190003a0007008b85e8003e000700be
:103600008e09900040000700ee0190003400070092
:103610008b85e800380007008e0990004000070005
:103620009e0990001b18b800890440000a854800d4
:10363000fe019000340007008b85e8003800070089
:10364000ee019000300007008e0990001b18b800b2
:10365000890440000a8548000a98a30008003a003f
:103660000402420085824a0006034b0087834b0018
:1036700008044c0089844c000a054d008d06e900c1
:1036800084827200850273004c3add00850272006c
:103690000100320015002000443ade001400b200a0
:1036a0004538de00cb45dd000b007000c540de0074
:1036b000cb4ddd008b8070004549de00cb55dd0031
:1036c0000b017100c551de000d03780018ff0700e3
:1036d00003f0a1000cf0a70003f0a00054ff370096
:1036e0001b18b8008502400006834800e0834b00a9
:1036f00060044c00070037001b18b80006034000a8
:1037000087834800faff37001b18b8008703400082
:1037100008844800e0844c0060054d00000006006d
:103720001b18b8000804400089844800faff3700dd
:103730000108a3003bff3a005800be000000000053
:103740005801be00e2ff37000008a30035ff3a0031
:1037500009047800f8ff370007f0a20006003700e0
:10376000020ab900001bb9000200b8008100420043
:1037700081004300000006002800fa00889fbe0078
:103780008a9fbe008c9fbe0007067800878669006e
:103790000c003b00030478008704780008f0a100c7
:1037a00009f0a100840f5000858f5800860f590042
:1037b000890f5c00030033000cf0a20001003a0006
:1037c0000cf0a10006ff07006400e1005f0032007a
:1037d000780147006408e100610032006c01470095
:1037e000748557003200be001201be003a04be00cc
:1037f0001a05be001e039000be0a90008503530008
:1038000006003d000004fd008104fd000205fd00ee
:103810008305fd008703ea00050378000df8a30087
:103820000400320060041400e0841c0060051d00e8
:10383000e0851d006022b8007d0320000d38e10006
:103840008006eb000b0039004433dd00f300b200ca
:103850008301730039003700848272000d02780002
:10386000e10664008b85d1000a85d3008984d300ea
:103870000884d3008703e900f7ff3b0008004000fd
:10388000898048000a0149008b81490004003b00ff
:1038900060001000e080180060011900e08119004c
:1038a0000358a300090032008d82720084827200e6
:1038b000610260008301d1000281d3008180d300c6
:1038c0000080d3000603e8001b0037000348a30074
:1038d00017003a000600e000170034000603e90074
:1038e0000d00a3000000480081804800020149004b
:1038f000838149000348a3000f003a000600e0005e
:10390000090034000603e9000000400081804800ff
:10391000020149008381490001003a000003eb00e5
:103920000348a300f5ff32006022b8000200370010
:1039300084827200618266007dfe070003f0a100b0
:103940000cf0a70003f0a000b9fe370064014700a7
:103950006408e10002003a000df8a300b1fe3a004d
:1039600032007800b20078001201be00b0fe3700cd
:10397000889fbe008a9fbe008c9fbe000404be00cc
:103980000605be00809fbe00829fbe00300007007b
:10399000040678000800be000a01be002c000700e3
:1039a000840678004f03be004f02be008d4f7600a4
:1039b0007fb0970013003300f0ff2f008b8f6b0058
:1039c00006003b000d0666000c00a7000a00370049
:1039d00007f0a600100020000a003700880f5200f0
:1039e000898f5a008a0f5b008b8f5b0003003900c0
:1039f0001000200001003e000000200007f0a7009a
:103a00000000ea004f06be004f05be004f04be0096
:103a100000000600e48240001078a3000700320096
:103a2000640240001178a3003400be001401be00ff
:103a3000050032000330a7000000060035007800c2
:103a4000b50078001501be000330a000000006009c
:103a500005ff270005826100070032000428e1000d
:103a600001003200240005000600070001003a00b2
:103a7000440005000408050002000700f9ff3a00b1
:103a8000140005006f8261008102700085027100e0
:103a900085027200000006005002be00e4005000e3
:103aa0005003be004439de00f700b200f37f20006f
:103ab00003016100090032000218e10016003a001b
:103ac0008501720083017300838173000008200068
:103ad00015003a00400020001300370085017200f5
:103ae000830173008381730005003a0004a8be00bf
:103af00006a8be00100020000b0037000201e900fc
:103b00000402420085824a0006034b0087834b0073
:103b10000748a300f9ff32000740a00004a8be0038
:103b200006a8be00200020008000980092009800a7
:103b300000000600881f7800030478000300e000fe
:103b400007003d0060001000e080180060011900cf
:103b5000e081190002003b0001f02d000300370056
:103b60000400070008f0a70003f0a0004f0478004d
:103b700000000600889fbe000082700004027100f1
:103b8000048271002400320036432000c50020006a
:103b90008383cf000a0039000541b1008283cf0042
:103ba000070039000541b1008183cf0004003900ce
:103bb0000541b1008083cf00010039000541b1000b
:103bc00085c353006022b800120032000a003b0097
:103bd00084827200610260008301d1000281d300ff
:103be0008180d3000080d3000603e8008743e8000b
:103bf000f7ff3a00070037000000400081804800ce
:103c000002014900838149000603e9008743e90076
:103c1000f9ff3a00c6fd07004f04be000000060091
:020000040000fa
:103c200000000000950000000000000000000000ff
:103c300001000000f900000000000000000000008a
:103c400008000000870000000400000000000000e1
:103c500009000000af0000000000000001000000ab
:103c60000a0000001b00000000000000010000002e
:103c70000c000000c3000000010000000000000074
:103c80000d000000af000000020000000000000076
:103c900010000000ff000000000000000000000015
:103ca00011000000ff000000000000000100000003
:103cb00012000000ff0000000000000001000000f2
:103cc00018000000ff0000000000000001000000dc
:103cd00019000000ff0000000000000001000000cb
:103ce00020000000ff0000000000000000000000b5
:103cf00021000000ff0000000000000000000000a4
:103d000026000000df0000000100000000000000ad
:103d100037000000730000000000000000000000f9
:103d20003a00000025000000040000000000000030
:103d30003b00000025000000000000000000000023
:103d400029000000ff000000040000000000000047
:103d500017000000ff00000000000000000000004d
:103d6000809a0000454100008e4100008f800000d5
:103d70004545000045490000494900008e8f00007c
:103d800090920000924f0000994f0000555500009e
:103d9000599900009a9b00009c9d00009e9f000086
:103da000414900004f550000a5a50000a6a700004e
:103db000a8a90000aaab0000acad0000aeaf0000a7
:103dc000b0b10000b2b30000b4b50000b6b7000057
:103dd000b8b90000babb0000bcbd0000bebf000007
:103de000c0c10000c2c30000c4c50000c6c70000b7
:103df000c8c90000cacb0000cccd0000cecf000067
:103e0000d0d10000d2d30000d4d50000d6d7000016
:103e1000d8d90000dadb0000dcdd0000dedf0000c6
:103e2000e0e10000e2e30000e4e50000e6e7000076
:103e3000e8e90000eaeb0000eced0000eeef000026
:103e4000f0f10000f2f30000f4f50000f6f70000d6
:103e5000f8f90000fafb0000fcfd0000feff000086
:103e6000222a00002b2c00003a3b00003c3d0000c1
:103e70003e3f00005b5d00007c7f000000460000cc
:103e8000415400000046000041540000333200005d
:103e900000000000303a0000005800002c20000014
:103ea000592c0000205a00002c200000540d000066
:103eb0000a000000783100002c2000007931000059
:103ec0002c2000007a3100002c200000743100000a
:103ed0000d0a000000780000322c0000207900005c
:103ee000322c0000207a0000322c000020740000e8
:103ef000320d00000a000000445500004d4d000046
:103f0000592e0000435300005600000025660000b3
:103f10002c200000256600002c20000025660000f3
:103f20002c20000025660000200d00000a00000083
:103f3000582c0000205900002c2000005a2c0000b2
:103f4000207400000d0a00000041000043430000ff
:103f5000454c00002e4300005356000000000000b6
:103f6000b8760000587d00001e770000387700000a
:103f70006a77000098770000c8770000d4770000c7
:103f8000fa770000de770000b8760000627d00005e
:103f90001e770000387700006a77000098770000ed
:103fa000c8770000d4770000fa770000de770000c1
:103fb000303a000000480000454c00004c4f000023
:103fc0002e5400005854000000480000656c0000aa
:103fd0006c6f0000205700006f7200006c640000de
:103fe000210000007f000000000000000000000031
:103ff000000000006300000000000000000000005e
:104000000000000026010000000000000000000089
:0440100000000000ac
:020000040000fa
:104014000400fa00100798001e0090000000e80059
:10402400104078000080fb00000f78001e0078002c
:10403400c800dd001e009000104078000080fb00e6
:10404400008f70001e0078000080fa000000060057
:104054000600fa00200798002e009000630040003c
:10406400104078000080fb008000eb00008fbe0051
:104074001e0078009e0090004809dd00c801de00a3
:10408400830171004801dd002e0090000080e800eb
:10409400104078000080fb008000eb00001f7100de
:1040a400019771001e0078009e0090004809dd0011
:1040b400c801de00830171004801dd002e0090007c
:1040c4000000e800104078000080fb008000eb0056
:1040d400001f7100019771001e0078009e0090007f
:1040e4004809dd00c801de00830171004801dd00dc
:1040f4002e009000104078000080fb008000eb0050
:10410400001f7100019771001e0078009e0090004e
:104114000080fa00000006000400fa00000f780096
:10412400110798001e009000804078001e0078005f
:10413400014878001e0fe8001e0090004800de00d1
:10414400100798001e009000804078001e00780040
:10415400014878001e0fe8000080fa000000060005
:104164000600fa00000f7800120798002307980051
:104174001e009000804078001e00780001487800fe
:104184001e0fe8001e009000ae0090004809dd00fc
:104194004800de0000007100c808de001007980027
:1041a400210798001e009000804078001e007800cf
:1041b400014878001e0fe8001e009000ae00900039
:1041c4004809dd004800de0000007100c808de0078
:1041d40010079800210798001e0090008040780086
:1041e4001e007800014878001e0fe8001e009000b1
:1041f400ae0090004809dd004800de0000007100b8
:10420400c808de0010079800210798001e009000df
:10421400804078001e007800014878001e0fe800f6
:104224000080fa00000006000a00fa002007980047
:104234003107980042079800ae009000010f780003
:10424400be009000110798004e0090000000e000ae
:104254000e0032001e009000904078001e0078008e
:10426400014878001e0fe8001e0090000000e800de
:10427400100798004e0090000000e90040079800e5
:104284004e0090000000e000f2ff3a000080fa00c7
:10429400000006000800fa001007980021079800a3
:1042a400320798009e009000010f78002e009000c5
:1042b400804078001e007800014878001e0fe80056
:1042c4003e0090000000e900300798003e00900096
:1042d4000000e000f5ff3a000080fa00000006004c
:1042e4000c00fa0030079800410798005207980024
:1042f400be009000010f7800ce00900011079800d6
:104304000000eb00200798001e00780010407800a1
:104314008080fb001e009000104078000080fb00ad
:1043240000805000200798001e0fe8001e00900037
:104334000000e800100798005e0090000000e9000b
:10434400500798005e0090000000e0000300320077
:104354002e0090000000e000ebff32002e009000e1
:104364000080fa00000006000400fa00000f780044
:1043740011079800010037001e0fe8001e007800a6
:10438400104078000004e000060032001e007800af
:10439400104078008000fb001e009000808f5000c9
:1043a400f5ff3a001e007800104078000000fb0082
:1043b4000080fa00000006000200fa00004f7800b6
:1043c4001e4078000004e000020032000000eb0010
:1043d400010037000000eb000080fa000000060036
:1043e4000200fa00004f78001e4078000004e0004c
:1043f400020032000000eb00010037000000eb0077
:104404000080fa00000006000400fa00100798007b
:104414000000eb00000f78001e0090003040900078
:104424000004e000390032001e0090009018900053
:10443400001890001e019000460320000203430070
:104444001e01900092429000140020000001be0062
:104454008600780005407800682c07000000e00022
:1044640028003a001e0090008040eb003140980084
:104474001e00900000199000901990001e009000fa
:10448400b01090002010900000015100818159006b
:104494001e009000f008900060089000800f51000a
:1044a400818f5900190031001e00900020409000b7
:1044b400e24f500015003a001e00900000199000d1
:1044c400901990001e009000f00890006008900081
:1044d40002004000838048001e0190004603200033
:1044e400020343001e019000924290001400200039
:1044f4000001be0086007800054078003f2c0700cc
:104504000200370010002000000f78001e00780021
:104514000080fa00000006000800fa001007980066
:1045240022079800330798000000eb00000f780082
:104534001e00900000199000901990002e00900029
:10454400be009000800f5100818f59001c00320082
:104554001e009000acff0700000f78001e007800da
:104564000000e00016003a001e0090004103200005
:10457400808040001e009000104090001400200035
:104584002e019000be019000ff2b07000000e00008
:10459400060032000080eb008080eb0020079800ca
:1045a4003107980010002000000f78001e009000d2
:1045b4002e019000be019000021898001318980074
:1045c4001e0078000080fa00000006000400fa00d3
:1045d400100798001e0090008bff0700000f780062
:1045e4001e0078000000e0004e003a001e0090001b
:1045f40010407800e34f500041003a001e00900044
:1046040040409000e14f50003d003a001e009000f1
:104614004003b000022020008000eb001dff0700d3
:104624001e0090002023b00051a52a00bafe070006
:104634001e0090004003b00022252500131624001c
:10464400c7fe07001e0090008021b000222727002b
:1046540013142600c2fe07001e009000900890006c
:10466400000890001e019000c421200002024200b4
:104674000001be0004007800b9fe07001e0090008f
:10468400f0009000600090001e01900004222000c1
:10469400020242000001be0004007800b0fe0700e0
:1046a4001e009000901090000010900061004000e7
:1046b400e08048001e01900000199800111998002c
:1046c4001e00900090189000001890001e019000a9
:1046d40046032000020343001e0190009242900012
:1046e400140020000001be00860078000540780018
:1046f400c22b07001e0090008040eb004140980050
:104704001e009000104090000001eb008040eb0080
:10471400d72b07000000e000020032001000200048
:10472400000f78001e0078000080fa0000000600e8
:104734000600fa00000f780012079800230798007b
:104744001e009000ae00900062005000e08058000f
:1047540010079800210798001e007800d0089000e8
:104764004008900062015000e08158001e00900053
:10477400ae009000800f5100818f590002003e006e
:104784006000b800120037001e007800601290002c
:10479400f01290001e007800500090008000eb00a2
:1047a4001e0190008191b900ae019000809bb90078
:1047b40086017800030141009e0190000018b800b2
:1047c4000101410082007800040040008580480017
:1047d4000080fa00000006001000fa00500798005c
:1047e40062079800730798005e00900090007800bc
:1047f400210798006e019000fe0190001000200037
:1048040001002000800f5100818f590008003600fc
:104814002e00900040099000d00990006e00900096
:10482400fe009000800f5100818f590004003e006b
:104834001000200001002000008fbe00b3003700ec
:104844000080eb008080eb00008fbe002e00900003
:10485400104078000080fb00e20f50005900320045
:10486400e30f500074003200e10f50009c003a0046
:104874006e029000340798003e0090000000d100c2
:10488400be00900000804000300798002e00900089
:1048940020119000b01190003e0090004900de000d
:1048a4008000eb0002004000838048000001be004d
:1048b4002e00900018ff07000000e0008c003a0072
:1048c400be009000f01f200000806000ae00900049
:1048d4004003b00000804000104078000080fb00de
:1048e400400798003e0090000000e8003007980060
:1048f4002e00900020119000b01190003e00900016
:104904004900de008000eb00020040008380480084
:104914000001be002e009000fffe07000000e00032
:1049240075003a00be009000f01f20000080600077
:10493400ae0090004003b0000080400010407800ba
:104944000080fb004800dd00ce00900001007000f4
:10495400400798006e0090006100600000407800fd
:104964000004e000040032004e0090004400de0029
:104974006101b800110037004e0090006101b800d9
:10498400f0ff2000010020000202780003017800fb
:1049940080017800010078000302620000006100d9
:1049a4008000eb00c000dd00000020000001be001c
:1049b4006120b8000001710081817100028fbe0086
:1049c400520037002e00900020119000b01190008a
:1049d4006e009000fe009000480add004800de00f2
:1049e40000007200c808de00020040008380480016
:1049f4000001be002e009000c7fe07000000e0008a
:104a04003f003a002e0090004103200080804000c7
:104a14006e0090000000400000017800f01f2000ac
:104a2400000061000080400079fd07008000eb0079
:104a3400008fbe00350037002e009000201190003a
:104a4400b01190006e009000fe009000490add0055
:104a54004700de0000007200c708de0002004000cc
:104a6400838048000001be002e009000aafe0700cb
:104a74000000e00024003a002e00900041032000d2
:104a8400808040006e0090004201dd00f01f200095
:104a940000006100008040006dfd07000001be00c1
:104aa400f0ff2f00f1ff200002027800830178005c
:104ab40000017800010078000201620000806100ba
:104ac4008000eb00c000dd0000002000008fbe006d
:104ad4006110b8001e1f70001e9770000b00370095
:104ae4001000200001002000008fbe0007003700e6
:104af400000000000500370000000000030037003c
:104b04000000000001003700000000001e007800d3
:104b14009e0090000080fa00000006001000fa00d9
:104b2400889fbe00300798004207980053079800fa
:104b3400640798007507980020002000000f780093
:104b44004e019000de0190001000200001002000c2
:104b5400800f5100818f5900f70036003e0090000d
:104b640040099000d00990004e009000de009000b3
:104b7400800f5100818f5900ef0036003e009000f5
:104b8400104078000080fb00e20f500073003200f8
:104b9400e30f500092003200e10f5000e6003a00ab
:104ba400ce009000110798001e0090000000d10074
:104bb4009e00900000804000100798003e00900086
:104bc40020119000b01190001e0090004900de00fa
:104bd4008000eb0002004000838048000001be001a
:104be4003e0090004cfe0700000f78001e00780085
:104bf4000000e000c9003a003e009000410320009c
:104c0400808040001e019000f01f20000000610021
:104c140000804000200798001e0090000000e8007b
:104c2400100798004e00900061006000004078007a
:104c34000004e0000a0032002e00900010407800ca
:104c4400ef4060006e009000004078000080fb00a0
:104c54004400dd000040780000c07000020037000e
:104c64006e00900000407800ae009000804878000c
:104c74003e00900011c0b300314098003e00900007
:104c840020119000b01190001e0090004900de0039
:104c94008000eb0002004000838048000001be0059
:104ca4003e0090001cfe0700000f78001e007800f4
:104cb4000000e0009b003a003e0090004103200009
:104cc400808040001e019000f01f20000000610061
:104cd40000804000200798004e00900061006000b2
:104ce400004078000004e000080032006e009000ec
:104cf400fe0090004c09dd004400de00000071005d
:104d0400c408de00004078000e0037002e0090003a
:104d1400104078008040780000cfb30000c16000ec
:104d24006e009000fe009000c809dd004800de001f
:104d340000807100c808de00004078006f40600009
:104d440000407100ae009000804878003e00900062
:104d540011c0b30031409800770037003e00900046
:104d640020119000b01190004e009000de009000e1
:104d7400480add004800de0000007200c808de00ba
:104d840002004000838048000001be003e00900005
:104d9400e1fd0700000f78001e0078000000e0002d
:104da40062003a00ee0090003e00900042032000b2
:104db400000141004e009000000040008001780096
:104dc400f01f20000080610000004100d2fc0700b9
:104dd4003e00900011c0b3003140980056003700e7
:104de4003e00900020119000b01190004e00900001
:104df400de009000490add004700de00000072007a
:104e0400c708de0002004000838048000001be00a5
:104e14003e009000c0fd0700000f78001e007800df
:104e24000000e00043003a006e019000fe01900093
:104e3400f0ff2f00f1ff20000202780083017800c8
:104e44000001780001007800020162000080610026
:104e54008000eb00c000dd00000020000004be0064
:104e64006110b80000047400818474003e00900056
:104e740041032000808040004e0090004201dd008c
:104e8400f01f2000000061000080400070fc07005b
:104e94000001be000000200001002f000202780083
:104ea40003017800800178000100780003026200a9
:104eb400000061008000eb00c000dd000000200065
:104ec4000001be006120b800000171008181710001
:104ed40002007400838074006007980071079800d2
:104ee4003e00900041032000808040004e0090006e
:104ef4004201dd00f01f200000006100008040003e
:104f04006e019000fe01900095fc07003e009000a9
:104f140011c0b300314098000700370000000000c2
:104f24000500370000000000030037000000000007
:104f340001003700000000001e0078004f04be008e
:104f44000080fa00000006001200fa0040079800f2
:104f5400520798006307980074079800050f98009b
:104f64000000eb00000f78004e00900090007800e5
:104f7400110798005e019000ee01900010002000df
:104f840001002000800f5100818f59000800360075
:104f94001e00900040099000d00990005e0090002f
:104fa400ee009000800f5100818f590002003e00f6
:104fb40020002000610037007e0090008e089000e1
:104fc400e00f5000e08f58000c0032000082eb002c
:104fd4008082eb007e0190008e0990001e009000fc
:104fe400cefe0700000f78001e0078000000e000ed
:104ff400020032001e007800500037005e0190006d
:10500400ee0190004e009000f3fd07002007980089
:10501400310798002e009000be009000e00f500071
:10502400e08f5800430032002e019000be01900032
:105034001000200001002000800f5100818f5900d2
:1050440002003a00200020003c0037002e019000ae
:10505400be0190000080eb008080eb00800f5100c7
:10506400818f590002003a001000200033003700fd
:105074006022b8005e019000ee0190001e009000d6
:10508400a6fe0700000f78001e0078000000e00074
:10509400020032001e007800280037001e00900035
:1050a40000099000900990001e009000d008900024
:1050b4004008900062005000e0805800800f5100ca
:1050c400818f59000e0031001e009000900890005e
:1050d4000008900061004000e08048001e0190003c
:1050e40000099800110998001e00900040409000ab
:1050f400804078000104a0001e0090004140980008
:105104002e019000be01900052079800630798009a
:105114001e00900040099000d00990005e009000ad
:10512400ee009000800f5100818f5900b3ff3e00c4
:1051340001003700000000000000eb000080fa00ce
:10514400000006001600fa00000f9800120f9800e5
:10515400230f98000e0890009000780051079800e3
:105164001e089000ae089000e00f5000e08f580039
:1051740017003a005e00900060019000f00190007a
:1051840022079800330798002e009000be0090007c
:10519400e00f5000e08f5800080032005e009000dd
:1051a40040099000d00990002e009000be009000ad
:1051b400800f5100818f59002e003e001000200006
:1051c40001002000200798003107980029003700cb
:1051d4001e099000ae0990000e0890007efd0700a5
:1051e40060079800710798006e019000fe0190001e
:1051f4001000200001002000800f5100818f590011
:1052040003003e001000200001002000f8003700d9
:105214006e019000fe0190000080eb008080eb00a6
:10522400800f5100818f590003003a006e009000f6
:10523400fe009000ee0037005e00900040099000f0
:10524400d00990006e009000fe009000800f510085
:10525400818f5900030036006e009000fe0090001c
:10526400e30037001e099000ae0990002207980061
:10527400330798005e0090009008900000089000aa
:10528400e00f5000e08f580002003a006000b800c0
:10529400d70037006000b800008fbe002e019000d8
:1052a400be0190001e089000ae089000800f5100cf
:1052b400818f590045003a002e009000be009000f6
:1052c4001200200003002000021f40000397480042
:1052d4005e009000d008900040089000be0f50007f
:1052e400ae8f580003003e00200020000100200083
:1052f400008fbe001e0178009e0190000e089000f1
:1053040035fd070060079800710798006e01900052
:10531400fe0190001000200001002000800f5100c9
:10532400818f5900070032006e019000fe01900049
:105334000080eb008080eb00800f5100818f5900ca
:1053440003003a006e009000fe009000a8003700b1
:105354006e009000fe009000e00f5000e08f5800b7
:105364001a0032005e00900060019000f00190008d
:1053740062079800730798006e019000fe01900088
:105384001000200001002000800f5100818f59007f
:105394000c0036005e00900040099000d009900097
:1053a4006e009000fe009000800f5100818f590024
:1053b400040036006e019000fe0190002207980060
:1053c400330798006000b800008fbe001e0078000c
:1053d4009e009000e00f5000e08f580041003a001a
:1053e4002e019000be019000028fbe000100370024
:1053f4000000000012002000030020001e0f4100e6
:105404005e9749005e009000d0089000400890002c
:10541400be0f5000ae8f58000c003e00200020004c
:1054240001002000008fbe002e009000be009000fe
:105434001e0178009e019000800f5100818f590059
:10544400020036006000b800690037001e017800d1
:105454009e0190000e089000dffc07006007980092
:10546400710798006e009000fe009000e00f50005d
:10547400e08f58001a0032006e019000fe01900087
:105484001000200001002000800f5100818f59007e
:10549400070032006e019000fe0190000080eb00d6
:1054a4008080eb00800f5100818f590003003a0087
:1054b4006e009000fe0090004d0037002e0090001a
:1054c400be0090001e0178009e019000800f5100e4
:1054d400818f5900c6ff3a006000b80044003700cd
:1054e400000000000082eb008082eb001e017800c7
:1054f4009e0190005e00900088fd07004007980020
:105504004e0090000000e0000c003a001e089000dd
:10551400ae089000e00f5000e08f58000700320002
:105524001e0278009e0290001e099000ae099000b1
:105534005e00900079fd0700400798004e0090003f
:105544000000e0001f003a005e0090001e01780099
:105554009e01900062009800730098005e00900025
:1055640000099000900990005e009000d00890001f
:105574004008900062005000e0805800800f510005
:10558400818f590008003e005e0090009008900052
:105594000008900061005000e08058005e01900017
:1055a40000099800110998005e00900040409000a6
:1055b400804078000104a0005e0090004140980003
:1055c400090037004e009000e10f500003003a003c
:1055d4000080eb008080eb00020037001000200008
:1055e40001002000008fbe001e0078009e00900085
:1055f4000080fa00000006001000fa00500798002e
:1056040062079800730798005e0090007efb070015
:105614000000e000020032001000200034003700d7
:105624006e019000fe0190005e00900040fc0700b7
:1056340010079800210798005e0090001e0190005a
:10564400ae01900002189800131898005e009000b4
:105654004003b000022020008000eb000dfb070097
:105664005e0090004003b000300798001000200056
:10567400400798000000eb00000f7800020037009c
:105684004e0090001e0f40005e00900050009000fd
